:0F739F00759D1FE4F5BD75BC807F02FE027290E4
:10732D00EF4488F5BC00000000E5BC30E4FB53BC25
:04733D00EFAFBD22CF
:1042D40000000000000000000000000000000000DA
:1042E4000000000808080808080800001818000062
:1042F40000486C24120000000000000000000000D0
:104304000000002424247F1212127F1212120000D3
:104314000000081C2A2A0A0C1828282A2A1C080823
:1043240000000022251515152A5854545422000063
:104334000000000C1212120A76252911916E000059
:104344000006060403000000000000000000000056
:104354000040201010080808080808101020400029
:1043640000020408081010101010100808040200BD
:104374000000000008086B1C1C6B0808000000000B
:1043840000000000080808087F080808080000006A
:104394000000000000000000000000000606040306
:1043A4000000000000000000FE000000000000000B
:1043B40000000000000000000000000006060000ED
:1043C400000080404020201010080804040202006D
:1043D4000000001824424242424242422418000093
:1043E400000000080E08080808080808083E000035
:1043F4000000003C4242422020100804427E00009B
:104404000000003C4242201820404042221C000090
:10441400000000203028242422227E20207800005E
:104424000000007E0202021A26404042221C0000C4
:10443400000000382402021A2642424224180000D6
:104444000000007E22221010080808080808000056
:104454000000003C4242422418244242423C0000F4
:10446400000000182442424264584040241C0000CA
:1044740000000000000018180000000018180000D8
:10448400000000000000000800000000000808040C
:10449400000000402010080402040810204000001E
:1044A4000000000000007F0000007F00000000000A
:1044B400000000020408102040201008040200003C
:1044C4000000003C42424640201010001818000032
:1044D4000000001C225A555555552D42221C00003F
:1044E4000000000808181414243C224242E700008B
:1044F4000000001F2222221E22424242221F0000EC
:104504000000007C4242010101010142221C000022
:104514000000001F2242424242424242221F000047
:104524000000003F4212121E12120242423F0000DB
:104534000000003F4212121E121202020207000083
:104544000000003C2222010101712122221C0000F2
:10455400000000E7424242427E42424242E70000FB
:104564000000003E0808080808080808083E000083
:104574000000007C10101010101010101010110FFB
:104584000000007722120A0E0A121222227700007B
:10459400000000070202020202020202427F00003F
:1045A40000000077363636362A2A2A2A2A6B00007B
:1045B400000000E346464A4A5252526262470000F3
:1045C4000000001C2241414141414141221C0000A4
:1045D4000000003F424242423E0202020207000043
:1045E4000000001C2241414141414D53321C6000F6
:1045F4000000003F4242423E1212222242C7000003
:104604000000007C4242020418204042423E000066
:104614000000007F4908080808080808081C000072
:10462400000000E74242424242424242423C000011
:10463400000000E742422224241414180808000051
:104644000000006B49494949555536222222000091
:10465400000000E7422424181818242442E700002C
:10466400000000772222141408080808081C00001F
:104674000000007E2120101008040442423F000084
:1046840000780808080808080808080808087800D6
:1046940000000202040408080810102020204040F2
:1046A400001E1010101010101010101010101E000A
:1046B400003844000000000000000000000000007A
:1046C400000000000000000000000000000000FFE7
:1046D40000060800000000000000000000000000C8
:1046E400000000000000003C4278444242FC00000C
:1046F400000000030202021A26424242261A000067
:1047040000000000000000384402020244380000A7
:1047140000000060404040784442424264D80000B7
:10472400000000000000003C427E0202423C000007
:10473400000000F08808087E08080808083E000009
:10474400000000000000007C22221C023C42423C8B
:10475400000000030202023A4642424242E70000DD
:104764000000000C0C00000E08080808083E0000B9
:104774000000003030000038202020202020221E9D
:104784000000000302020272120A161222770000CD
:104794000000000E0808080808080808083E000081
:1047A400000000000000007F9292929292B70000F5
:1047B400000000000000003B4642424242E7000085
:1047C400000000000000003C42424242423C000023
:1047D400000000000000001B26424242221E020785
:1047E400000000000000007844424242447840E067
:1047F40000000000000000774C040404041F0000C3
:10480400000000000000007C42023C40423E0000E8
:10481400000000000008083E0808080808300000EE
:1048240000000000000000634242424262DC0000DB
:1048340000000000000000E74224241408080000DF
:1048440000000000000000EB4949555522220000F9
:10485400000000000000007624181818246E0000E0
:1048640000000000000000E7422424141808080790
:10487400000000000000007E22100808447E0000B2
:1048840000C0202020202010202020202020C00034
:104894001010101010101010101010101010101014
:1048A4000006080808080810080808080808060090
:1048B4000C32C200000000000000000000000000F4
:0600030000007F03DFFE98
:0100090022D4
:10734100AD07AC06ED1DAE0470011C4E60051200C8
:047351000380F122A2
:107290007DF57C0CED1D70011C144C70F7EF1F7018
:0672A000011E144E70EA0D
:0172A60022C5
:104D4700C4BD0004407FFC04401FF010101FF0108A
:104D5700101FF00400FFFE12102208CB2612902A23
:104D6700900400CBBE0000003FF8000800087FE871
:104D7700000800081F8810881088108810881F886E
:104D8700108800280010CEAA000100210011001190
:104D97000001007FF8020802080288044804480856
:104DA700081008200840508020D2BB0000000000F7
:104DB70000000000000000000000FFFE00000000EF
:104DC700000000000000000000000000CFDF00101E
:104DD7005010482040245C45E0F840105E23E04036
:104DE70044FC48403000221C52E08A43060002CEB1
:104DF700A200110815482548455097DE10242014B5
:104E07006FD4A0142794249424A824C82494281485
:104E17003022C3A30008200820FFFE082008202016
:104E270040102087FE490009001100E10021002100
:104E37000021FC0000E3BF00102011FC1088105077
:104E47001BFE540051FC512491FC112411FC10202D
:104E570011FC102013FE1000E3BD00100013F81220
:104E6700081BF8560853F8504097FE100013F81225
:104E77000813F810401248144410C0D2E200010091
:104E87003FF808200440FFFE00001FF010101FF03D
:104E970010101FF002005104511290120FF0B9C206
:104EA700000008F83C0BD01290229022902A9032F2
:104EB700902290E288228822C822A424D4A492486F
:104EC70000D0D000080009FC1000200048000800AE
:104ED70013FE30205020902010201020102010208A
:104EE70010A01040D5E20000802040104017FC00C1
:104EF700100210F12010A0104010A0111012081479
:104F070008280047FE0000D6DA00010001000280F1
:104F17000440082010102828C82608200820082048
:104F270014501250228841048202C9FA000100116C
:104F370000110011003FFC21004100810001003FEA
:104F4700F80100010001000100FFFE0000DCBF00C6
:104F570008200820FFFE0820082000003FF8000076
:104F67000000FFFE02000400082010103FF81008A0
:104F7700CBAD0001404120212023FE02200620EB7B
:104F8700FC2220222023FC222022202A2033FE225A
:104F9700000200B2BB0000007FFC0080008001001F
:104FA7000100034005200910110821044104810074
:104FB700010001000100D4F800082004403FF82157
:104FC70008292825483FF800001FF0101010101F6F
:104FD700F0101010101FF01010C8E700100010009C
:104FE7001000107CFE4422442244224442442444BC
:104FF700144408441444227C42448000B4CB000487
:10500700400440044024442448275024602440247A
:10501700402440244024422F42F042403E0000C832
:10502700CE00081008780BC01040104030403040C8
:105037005FFE90401040104010401040104017FC99
:105047001000D0D400102010201120112019FC5579
:105057002052205020902011FC10201020102010EA
:105067002013FE1000EFAE00100011FC3D24212498
:1050770041FCBD24112411FCFC20102011FC102040
:105087001420182013FE0000B5E7000100010001FD
:10509700003FF82108210821083FF82108210821AD
:1050A700083FF8210A0102010200FEB3D8000040C0
:1050B700204012401258826842C853481E4812487E
:1050C7002248E25822422202220221FE0000D1B9E0
:1050D7000000003FFE200020802080208020802FBD
:1050E700FC2080208020902088208840805FFE80E0
:1050F70000A3BA000000000000000000000000004C
:1051070000000000000030003000000030003000D8
:1051170000000000A3AC0000000000000000000039
:105127000000000000000000000000000030003018
:1051370000100020000000A3A100000010001000D4
:1051470010001000100010001000100010000000E8
:0A515700000010001000000000002E
:10609700C7E0000000000000000000000000000052
:1060A70003800000018000000198000003FC00004D
:1060B7007F0000000100000001F800003F800000A1
:1060C70001000000010FF8000FFE1807FC00001F79
:1060D7000030000003FC00001C1C0000101800002A
:1060E70011C800001E080000100C000011CC0000B1
:1060F7001F0C0000300C0000300C0000300C0000BA
:10610700607C0000603800000018000000000000FC
:10611700000000B4BA000000000000000000000208
:106127000000000300000003000000037E000007DA
:10613700F000001E0000000200000006F800007FCB
:10614700C0000036000000040E00000DFF0001FF34
:10615700C00001C820000018100000300C000030FB
:106167007600007FFB8000D819C0019818F8031942
:10617700987E0C1F980018181800001818000018AF
:10618700D800001FF80000183800000010000000B9
:06619700100000000000F2
:076D10004400EC000000004C
:1072A700D2CDD2877F057E00127341C2CD7F057E86
:0772B70000127341C287229F
:10735500C2CDD2877F057E00127341D2CD7F057ED7
:04736500000273416E
:1072EC00A21992CDD2877F057E00127341C2877F8F
:0672FC00057E0002734153
:106FEB00C2877F057E00127341D2CD7F057E0012D2
:106FFB007341D2877F057E0012734130CD0CC2875F
:10700B007F057E001273417F0022C2877F057E00C1
:06701B001273417F012207
:056EB50090005AEFF00F
:106EBA00E4A3F0C2877F057E0012734190005AE076
:106ECA00FF30E704D2CD8002C2CDEF25E090005A10
:106EDA00F0D2877F057E0012734190005BE004F0D8
:0B6EEA00E0C3940840CDC287126FEB9C
:016EF500227A
:106E2F00E4900104F0D2CD900103F0900104E0252D
:106E3F00E0F0D2877F057E00127341900104E0FFDE
:106E4F00A2CDE433FEEF4EF0C2877F057E001273B2
:106E5F0041900103E004F0E0C3940840CE90010498
:026E6F00E0FF42
:016E710022FE
:1071E700900058EFF0A3EDF01272A77F3C126EB536
:1071F700900058E0FF126EB5900059E0FF126EB58F
:03720700027355BA
:106536001272A77F3C126EB57F03126EB51272A758
:106546007F3D126EB5E49000C3F0126E2F9000C32B
:10655600E0FE24C4F582E43400F583EFF0EEB406E1
:1065660004D2198002C2191272EC9000C3E004F042
:10657600E0C3940740D41273557F057E0012734121
:106586009000C4E0FEA3E0FDEDFF9000CCEEF0A38A
:10659600EFF09000C6E0FEA3E0FDEDFF9000CEEE2A
:1065A600F0A3EFF09000C8E0FEA3E0FDEDFFAC061F
:1065B600EC123382C004C005C006C0079000CCE0D0
:1065C600FCA3E0FDEC1233829000E8123B06D007F4
:1065D600D006D005D0041268DEE4FBFA793478439D
:1065E6001231C67BC37AF5794878401232CFE4FB84
:0E65F600FA793478431230D59000EC023B065F
:0773DF00E4FD7F020271E7EB
:10000E0001000100010001000100010001000100DA
:10001E0001000100010001000100010001000100CA
:10002E0001000100010001000100010001000100BA
:10003E0001000100010001000100010001000100AA
:1002BE00010001000100010001000000000001002A
:1002CE000100010001000100010001000100010018
:1002DE000100010001000000010001000100010009
:1002EE0001000100010001000100010001000100F8
:1002FE0001000100010001000100010001000100E8
:10030E0001000100010001000100010001000100D7
:10031E0001000100010001000100010001000100C7
:10032E0001000100010001000100010001000100B7
:10033E0001000100010001000100010001000100A7
:10034E000100010001000100010001000100010097
:10035E000100010001000100210061008100810007
:10036E006100410021002100210021000100010057
:10037E000100010001000100010001000100010067
:10038E000100010001000100010001000100010057
:10039E000100010001000100010001000100010047
:1003AE000100010001000100010001000100010037
:1003BE000100010001000100010001000100010027
:1003CE000100010001000100010001000100010017
:1003DE000100010001000100010001000100010007
:1003EE0001000100010001000100010001000100F7
:1003FE00010041002211042264322432E4298319BF
:10040E0022014101410161014101E200810022000E
:10041E0001000100010001000100010001000100C6
:10042E0001000100010001000100010001000100B6
:10043E0001000100010001000100010001000100A6
:10044E000100010001000100010001000100010096
:10045E000100010001000100010001000100010086
:10046E000100010001000100010001000100010076
:10047E000100010001000100010001000100010066
:10048E000100010001000100010000004100831184
:10049E000643F7E7F8FFF9FFDAFFFCEF060BF47EF1
:1004AE00F36FEE678604C50304020201210001000A
:1004BE000100010001000100010001000100010026
:1004CE000100010001000100010001000100010016
:1004DE000100010001000100010001000100010006
:1004EE0001000100010001000100010001000100F6
:1004FE0001000100010001000100010001000100E6
:10050E0001000100010001000100010001000100D5
:10051E0001000100010001000100010001000100C5
:10052E00010001000100410023190533F8F7FBFF1C
:10053E00FBFFF9FFF8F735B78B3D0714D2872C6F09
:10054E00EA87C94F6A4F2D25A10001000100010065
:10055E000100010001000100010001000100010085
:10056E000100010001000100010001000100010075
:10057E000100010001000100010001000100010065
:10058E000100010001000100010001000100010055
:10059E000100010001000100010001000100010045
:1005AE000100010001000100010001000100010035
:1005BE000100010001000100010001000100010025
:1005CE002100020933AE16CFFDFFFDFFFDFFFDFF3B
:1005DE00129FB29E061CED5D441CE413E30B4824EF
:1005EE0003034D2C41018200620082006100210054
:1005FE0001000100010001000100010001000100E5
:10060E0001000100010001000100010001000100D4
:10061E0001000100010001000100010001000100C4
:10062E0001000100010001000100010001000100B4
:10063E0001000100010001000100010001000100A4
:10064E000100010001000100010001000100010094
:10065E000100010001000100010001006200E31130
:10066E00F8E7FBFFFCFFFEFFFEFFF9F7EB458C5EA4
:10067E00F48746144F67319FAA14B0760503440AD7
:10068E0021020201C401567F6201E2008100410095
:10069E000100010001000100010001000100010044
:1006AE000100010001000100010001000100010034
:1006BE000100010001000100010001000100010024
:1006CE000100010001000100010001000100010014
:1006DE000100010001000100010001000100010004
:1006EE0001000100010001000100010001000100F4
:1006FE0001000000010081006311852A2B55EF8D4A
:10070E00FEFFFAEF94B7DBFF2835F2975257640CD1
:10071E006704070C05034503AF3EA60367132302C8
:10072E00C2026A0446038B1C4102210181000100B2
:10073E0001000100010001000100010001000100A3
:10074E000100010001000100010001000100010093
:10075E000100010001000100010001000100010083
:10076E000100010001000100010001000100010073
:10077E000100010001000100010001000100010063
:10078E000100010001000100010001000100010053
:10079E00C100031AF195F9EF4C65FBFFFAFFED76F8
:1007AE008A5D0A4DC72C480DB16F4D2E470C0815AA
:1007BE006C1469030503CA1C718F66034A0C650C21
:1007CE006C4FCC9F471F2705E301E200410001005B
:1007DE000100010001000100010001000100010003
:1007EE0001000100010001000100010001000100F3
:1007FE0001000100010001000100010001000100E3
:10080E0001000100010001000100010001000100D2
:10081E0001000100010001000100010001000100C2
:10082E00010001000100010001006100E301139FBE
:10083E0096C7FBDFFCF7FBF7F7E78E66D6E7F4B754
:10084E00106FA724B5AF6A15280C0C36A71BA90B81
:10085E00C80AA60A0603ED55CB47F3E7EA5FCB2E8F
:10086E00F09FEC47EC05A602630181000100010038
:10087E000100010001000100010001000100010062
:10088E000100010001000100010001000100010052
:10089E000100010001000100010001000100010042
:1008AE000100010001000100010001000100010032
:1008BE0001000100210022002100000001000100C2
:1008CE00010001002100E100A532F9D7FFFFFFFF73
:1008DE00FDE7FDEF2C65E83C0935E934A93CC83449
:1008EE00ED55906EF68FCC3ED4CF8834241427036A
:1008FE002603470CF1A74A57F0BFCFAFCB878947E6
:10090E00E7276B1729058401620001000100010031
:10091E0001000100010001000100010001000100C1
:10092E0001000100010001000100010001000100B1
:10093E0001000100010001000100010001000100A1
:10094E000100010001000100010001000100210071
:10095E0024112419A2002100010001000100010050
:10096E006100C211FAEFDAE77BD7FFFFFEF793BF04
:10097E008C75F9D7AF768E66F5BF739FA60B2503E0
:10098E002403A402C40A090CA403904E7267E90C56
:10099E00EA6FCD4FA757CFB7F9FFF0CF891FC957D1
:1009AE00CA0F6C1521014100010001000100010078
:1009BE000100010001000100010001000100010021
:1009CE000100010001000100010001000100010011
:1009DE000100010001000100010001000100010001
:1009EE00010001000100010001002100A629FFFF06
:1009FE00C621610021000100000081006201232355
:100A0E00CB57F7D7FFFFFFFFFFFFFCE7FBFFFAFF18
:100A1E00F8F7F6E7461D0E3F480DC7030803E40935
:100A2E00860AC401E401050327038A46F3D7AC679F
:100A3E00CE974A57F1AFF8F7C78FC82F0B0E480461
:100A4E00C60181000100010001000100010001004A
:100A5E000100010001000100010001000100010080
:100A6E000100010001000100010001000100010070
:100A7E000100010001000100010001000100010060
:100A8E0001000100010042006832FFFFFFFF8511E7
:100A9E0082008200E200A201291DEF8FF8D7FFFF2E
:100AAE00FFFFFFFFFFFFFAEFF8F7F4EFF3DFF1CFF1
:100ABE00EEBFEEBFF0C7EF9F862DE802E301840183
:100ACE0028122309E4015066AD57CD87F5E7F9F7F3
:100ADE004B4FF6EFFCFFF3AFC604C904A60242016A
:100AEE0042000100010001000100010001000100AF
:100AFE0001000100010001000100010001000100E0
:100B0E0001000100010001000100010001000100CF
:100B1E00010001000100010001000100010021009F
:100B2E0041006200E619FFFFFFFF6B436722C942D7
:100B3E003CDFDDE775A7D9DFBBE7FFFFFFFFFFFF58
:100B4E00FEEFF4CFF1CFD0D78D5FC413A80BE80B17
:100B5E000604A603AA26AB072A0F46024301A200EB
:100B6E00C20081016403F3B7EFC7EE870C2FF7F7CE
:100B7E00A94FC9272904A5024302A3018200000040
:100B8E00010001000100010001000100010001004F
:100B9E00010001000100010001000100010001003F
:100BAE00010001000100010001000100010001002F
:100BBE00010001000100010001004200F39424092C
:100BCE000612FFF7FFFFFFFFFFFFFFFFFFFFDFFF35
:100BDE00FEFFFEF7FFFFFFFFFFFFFFFFB8C7F1C7E6
:100BEE00F1BFAE6F2213A1014201220102012101C8
:100BFE008201A502C3024703AD0DA200610082006F
:100C0E004201A50ACF77F3E78737EFC7AC0EE904A9
:100C1E00290CC60343020402610001000100010019
:100C2E0001000100010001000100010001000100AE
:100C3E00010001000100010001000100010001009E
:100C4E00010001000100010001000100010001008E
:100C5E000100010001008200DFF7EA4AF69DBEF7AF
:100C6E00FFFFFFFFFFFFFFF75395892BB046DFFF16
:100C7E00FEFFFFFFFEF7DFFFFFF7B8AF861BE209AF
:100C8E00E100410021002100010021004100A100EE
:100C9E00E1000301A20042008200820082000301F3
:100CAE00E2018503E81E6B06D04F0D05290368058A
:100CBE00C602E30042002200010001000100010013
:100CCE00010001000100010001000100010001000E
:100CDE0001000100010001000100010001000100FE
:100CEE0001000100010001000100010001000100EE
:100CFE00010021008621DFFFDFFFFFF7FFFFFFFF6F
:100D0E00FFFF6E5C451A282BDFFFFEFFD8AFCE37F4
:100D1E008E2EB14DFFFFFFFF262281000100000045
:100D2E000100000000000100000001000100210090
:100D3E00210002084200630063006200820041014C
:100D4E00C001220264020602C4012401C300820013
:100D5E0062004200010001000100010001000100DB
:100D6E00010001000100010001000100010001006D
:100D7E00010001000100010001000100010001005D
:100D8E00010001000100010001000100000021002E
:100D9E00E3084C5BBEF7FFFFFFFF8F6CDEEFFFFF3C
:100DAE008B337DE7FFFFB3753586D0344813860A43
:100DBE00A722FFF7651920000000010001000100C5
:100DCE00010001000100010001000100010001000D
:100DDE000100220042004A13410021004100A200FE
:100DEE00E4002609C3006200620082008200430014
:100DFE0001000100010001000100010001000100DD
:100E0E0001000100010001000100010001000100CC
:100E1E0001000100010001000100010001000100BC
:100E2E000100010001000100010000000100C308E3
:100E3E00E6212A3B0D54EC4B4E5CFFFFBEFFFFF745
:100E4E00FFFFFFFFFFFFDFFFFFFF461AC300820019
:100E5E00210001000100010001000100010001005C
:100E6E00010001000100010001000100010001006C
:100E7E0042004200220022000100220082004301B3
:100E8E008300620082000301230162000100010061
:100E9E00010001000100010001000100010001003C
:100EAE00010001000100010001000100010001002C
:100EBE00010001000100010001000100010001001C
:100ECE000100010001000100010021006100061A6D
:100EDE00FFFFBFF7FFFFFFFFFFFFFFFFFFFFFFFF5C
:100EEE00DFFFFFFFFFFFFFF764112100010001008C
:100EFE0001000100010001000100010001000100DC
:100F0E0001000100010001000100010001000100CB
:100F1E006501A30022002100430803010301C30061
:100F2E00E4006401080AA30042002200210001002F
:100F3E00010001000100010001000100010001009B
:100F4E00010001000100010001000100010001008B
:100F5E00010001000100010001000100010001007B
:100F6E0001000100010001004100E621FFFFFFFF2B
:100F7E00FFFFFFFFBEF7FEE711756D4C2B34FFF739
:100F8E00FFFFFFFFC621210001000100010001004B
:100F9E00010001000100010001000100010001003B
:100FAE0001000100010001000100010021006200AA
:100FBE00C40842004100A3004B35E408E400A4003D
:100FCE00A300E300C3008200220001000100010023
:100FDE0001000100010001000100010001000100FB
:100FEE0001000100010001000100000002000200EA
:100FFE0002002200010001000100000000000100BB
:10100E00010001002100A619FFFFDFFFB8AE19AFE6
:10101E00FFF7FFFFFFFFDFFF1175FFFFFFFFFFF77A
:10102E00240921000100010001000100010001005E
:10103E00010001000100010001000100010001009A
:10104E00010001000100010001004200CA1A8300E4
:10105E0042006200C300E400E400A400A300C30049
:10106E00AE4C0301A200420001000100010001008C
:10107E00010001000100010001000100010001005A
:10108E0001000100010021006300630063000912EA
:10109E002200020001000100010001008721010071
:1010AE0001000411DEEFFFFFFFFFFFFFFFFFDFFF79
:1010BE00DEF7FEEFFFFFFFFFFFFF6C53A2080100FC
:1010CE00010001000100010001000100010001000A
:1010DE0001000100010001000100010001000100FA
:1010EE0001000100010063004701C9022301A200B3
:1010FE006200C300060A0812C300B36543018409E7
:10110E00281BE10061000100010001000100010047
:10111E0001000100010001000100010001000100B9
:10112E006100E20025010401E5088400630022004D
:10113E0002000100010023002100010001008200D5
:10114E006832FFFFFFFFFFF7927D738DFFEFFFFF0A
:10115E00FFFFFFFFFFFFC619410001000100010064
:10116E000100010001000100010001000100010069
:10117E000100010001000100010001000100010059
:10118E000100A40090024F05C90482018200830071
:10119E000401450104016501C50265028702450B84
:1011AE0022094000010001000100010001000100C0
:1011BE000100010001000100010041004101F18F19
:1011CE00AC0CE509AB1BC4004601630043002200D2
:1011DE00410086112100010000006200A511FFFFF1
:1011EE00FFFFDFFFFFFFFFFFFFFFFFFFFFFFFFF729
:1011FE004B434409410001000100010001000100C0
:10120E0001000100010001000100010001000100C8
:10121E000100010001000100010001000100A40015
:10122E00EF02AE052D072403E200620003012A132C
:10123E000409A80A2603F397271DED9F4303C10057
:10124E000100010001000100010001000100010088
:10125E0001000100010081000202EC87840BCA0B21
:10126E00C502E400C400A400C30082008001A401F2
:10127E00420001002100A2082612FFF7FFFFFFFF28
:10128E00FFFFFEF7FFF7FFFFFFFF16A6D59D339575
:10129E00640941000100010001000100010001008C
:1012AE000100010001000100010001000100010028
:1012BE00010001000100010001006300A801720598
:1012CE00CD060C1E0301820002010302050144013A
:1012DE00A502871664046E6F0A2E2101010001001B
:1012EE0001000100010001000100010001000100E8
:1012FE000100C100C402ED5F2704D197E60AC401C4
:10130E0065012A0B05090301AC1523016200620079
:10131E002409882AFFFFFFEF1BCFFFFFFFFFFFFF10
:10132E00FFFFFFFFFFFFFFFFFFFFFFFFFBD6E308FF
:10133E000100010001000100010001000100010097
:10134E000100010001000100010001000100010087
:10135E0001000100010022000501ED032B07A80288
:10136E002301A200E400E40083014509E90B8B6729
:10137E00271F280DAC87410101000100010001006B
:10138E000100010001000100010001002100E20046
:10139E006402C70228250C5EAE4D680C8B350B1C03
:1013AE00A6018401A8036301E300E7217DE7FFFFA7
:1013BE00FFFFFFFFFFFFFFFFFFFFFFFFFFFFFFFF2F
:1013CE00FFFFFFFFDFFFDFFFDFFF25190100010039
:1013DE0001000100010001000100010001000100F7
:1013EE0001000100010001000100010001000100E7
:1013FE00010001006200E200C401A301A701030184
:10140E00E30085012402A50105024A4E2A1EEC3F87
:10141E00A81CE10001000100010001000100010013
:10142E000100010001000100010823012403030251
:10143E00450265032503870B8613CA240402EE14A6
:10144E00280368126E23DEFFFFFFFFFFFFFFFFFF83
:10145E00FFFFFFFFFFF70A3BA82A6B43FFFFFFFFCB
:10146E00FFFF0C44261AE3080100010001000100F1
:10147E000100010001000100010001000100010056
:10148E000100010001000100010001000100010046
:10149E0001004100C2004702A90725026501A30110
:1014AE000303450184012302F25F660DA101810051
:1014BE000100010001000100010001000100010016
:1014CE000100010041008B24ED6FE409E5010702E4
:1014DE002402A80C09158A24A3022915A604A50224
:1014EE00E511DFF7FFFFFFFFFFFFFFFFFFFFDEF757
:1014FE006A338409E3006409F7B5FFFFFFFFFFF7C6
:10150E004822C30862000100010001000100010031
:10151E0001000100010001000100010001000100B5
:10152E0001000100010001000100010001000100A5
:10153E00C3008E022D064C0ECA0265018501E5011F
:10154E000301E401880C4102020141000100010087
:10155E000100010001000100010001000100010075
:10156E00620063020302E40985036401E401AF56DD
:10157E002A0CE914C5038E47EC5FA9038401272AC0
:10158E00F6AD98BEFFFFFFFFFFFFDFFFFFFF0A4331
:10159E008511E3004722FFF7FFFFDFFFFFF7A93AB0
:1015AE008509C20042002100010001000100010076
:1015BE000100010001000100010001000100010015
:1015CE0001000100010001000100220025011104AB
:1015DE002E0F4B078A03AE2C6401041123018401E4
:1015EE00E201620182002100010001000100010000
:1015FE000100010001000100010001004108640129
:10160E004C1CC5018409840104026502C82CEF2D0F
:10161E00060CF3C7EFB78C166301C2002612FFF754
:10162E00FFFFFFFFF174FFF7FFFFFFFF1BDF8511C9
:10163E0003096C5BFFFFFFFFFFFFFFFFFFFF483259
:10164E00A511C300620001000100010001000100AC
:10165E000100010001000100010001000100010074
:10166E0001000100010022002501AF05EA078C07E9
:10167E00F0030602470A090B0402C3017067C30197
:10168E008200C721010001000100010001000100DC
:10169E000100010001000100420823012402A409F7
:1016AE00070B04028A34ED3DA70BEA0B680CF0BF62
:1016BE00EC97C40BA2010301CD63FFFFFFFFFFF701
:1016CE00261A461AFFF7FFFFFFFFDBCE2409261A64
:1016DE00FEF7FFFFFFFFFFFFFFFFFFFFFFF7507C4F
:1016EE0085118200210001000100010001000100AE
:1016FE0001000100010001000100010001000100D4
:10170E0001000100A300AB020D054D072B04E502FD
:10171E00D25E4713E602C80B6D25A401820021009C
:10172E0001000100010001000100010001000100A3
:10173E00010001006310C501830164014702C70265
:10174E000603CF4EF6A78A1C0C1DEC6FEA7FCC3732
:10175E00230A6732DFFFFFFFFFF78B3BC509A509A1
:10176E0099BEFFFFFFFFD5A5A722FACE3AC7FFF716
:10177E00FFFFFFFFFFFFFFFFFFFFFFFF9EEF893A17
:10178E00C300210001000100010001000100010061
:10179E000100010001000100010001000000010034
:1017AE00220004012802AE03C802C603C803F06F6C
:1017BE00F9DF0713B46FC401C1004100010001003D
:1017CE000100010001000100010001000100010003
:1017DE0041008301A3018401C60146028903CE564E
:1017EE00F8C74B2DEE66EFB7EB7706172403FFFF16
:1017FE00FFFFDFFFD9BEFFFF7DDF461A0E64FFFF3E
:10180E00FFFFFFF76F6CFFFFFFFFFFF7BEE7FFFF66
:10181E00FFFFFFFFFFFFFFFFFFFFFFFF48326200EA
:10182E0001000100010001000100210042008200C0
:10183E00A200A20882004200210001000100630004
:10184E004A0AD0046602C402C4028613AF6E68133D
:10185E00A5126301A2002100010001000100010098
:10186E000100010001000100010001002200E3005F
:10187E008C14C4010502660A2B0C88042C2629152B
:10188E00850DA75FC83FCB5FD8B6FFFFFFFF5CD7C4
:10189E00FFFFFFFFFFFFAC53BDEFFFFFFFFF538DB9
:1018AE00DFFFDFFFFFF7DFFFDFFF317DDFF7FFFF3A
:1018BE00FFFFFFFFFFFFFFFFFFF765112100010094
:1018CE000100210082000309E619A9329074DACED4
:1018DE00A93A0722230981002100A300A709A70224
:1018EE002502E301440A4F87F4AEC30164010401EB
:1018FE004200010001000100010001000100010091
:10190E00010001000100010042000201C301240296
:10191E0025028302A503ED35EF5687046835CA7F8D
:10192E00EA478F4DFFFFDFFFFEEF527DFFFFFFFF08
:10193E00D59DFFFF7CDFDFFFFFFFD0745BD7FFFF7E
:10194E006D4CFEEFFFFFFFF7082B0E6CFFFFFFFF46
:10195E00FFFFFFFFFFFF2832420022006200030953
:10196E00A93AFFF7DFFFFFFFFFFFFFFFFFFFFFFFBC
:10197E00FFFFA93A85116401100EAA07640326031E
:10198E004402E60A630264010301820021000100A1
:10199E000100010001000100010001000100010031
:1019AE0001000100A2002301AA1D4402850AA71B03
:1019BE00E50B6835F9F78504A60C5ABFB8B7DFFFFB
:1019CE00FEF7139D461A95A5FFFFFFFFFFF7FFFFDA
:1019DE00FFFFFFFFFFFF1BCF6B43FFFFF17CDEF727
:1019EE00DFFFFFFF261A03094409E619A93A3495C9
:1019FE007EE7DFF78200E310C61959C6FFFFFFFF2F
:101A0E00FFFFFFFFFFFFFFFFDFFFFFFFFFFFFFFFF8
:101A1E00BEF7C812700C8F06C602E4096402E30218
:101A2E004813A90B8201651102000100010001009B
:101A3E000100010001000100010001000100010090
:101A4E008100A101CB2BA302D697650B4E7785148F
:101A5E008F56E60BE503EB1CFEE7107D47220301D4
:101A6E00E3082B4BFFFFFFFFDEEFB174FFFFFFFF1D
:101A7E00FFFFFAC60612DFF7FFFFE92ADFFFFFFFBF
:101A8E0065194100210062008200C300C308820074
:101A9E0018BE7EF7FFFFFFFFFFFFFFFFFFFFFFFFF9
:101AAE00FFFFB17CA932472A8B43FFFFFFFFDFF711
:101ABE00921DAD0324026E2CC60AC80CF2D7AE6F6F
:101ACE00B17E22016300010001000100010001004E
:101ADE000100010001000100010001004200A2000E
:101AEE00E201A934319F114FC724FAFF0C56681436
:101AFE00AD3567042C0FED0D23094100620048320D
:101B0E00FFFFFFFFA82A6722DEF7FFFFDFFF0B4371
:101B1E00E308E3080409C308A5196519820021002A
:101B2E00010001000100010001000100A308C62907
:101B3E00DFFFFFFFFFFFFFFFFFFFFFF7682A030135
:101B4E00A200A200261AFFFFFFFFFFFF3047CD0FB6
:101B5E0084012301460AE40BEFBFF0C771A72201EF
:101B6E00410001000100010001000100010001001F
:101B7E0001000100010001000100A100E502440383
:101B8E002825A61CF4874F4EC60C8604AE460704C5
:101B9E00C90E0613040261000100C308349D58BE2D
:101BAE0024090309CE63FFFFDEFFC6214200210098
:101BBE00210021002200420001000100010001006D
:101BCE0001000100010001002200C200C6197DE7DC
:101BDE00FFFFDFFF1BCFE611C200410021006100B5
:101BEE00E619FFFFFFFFFFFF9BC745032201E3003E
:101BFE0066094402CB4CA40A4302E3002100010013
:101C0E0001000100010001000100010001000100BE
:101C1E00010001000100A1004713E50B539F070DC2
:101C2E00F4AF6945681464034804290CE927701F52
:101C3E00E5018200010021006200620021004100E6
:101C4E0024114C5B17B6820821000100010001002F
:101C5E00010001000100010001000100010001006E
:101C6E0001000100210083000301061AA82AC82AD8
:101C7E00C722E5196409A20041006100E619FFFFC1
:101C8E00FFFFDFFF179E22018200E2004D35850126
:101C9E00230143012201E2002100010001000100A5
:101CAE00010001000100010001000100010001001E
:101CBE0020000201E503D2976F7FF7B7D48FEFAF05
:101CCE00E70385030704A6040705A5034602E10002
:101CDE00000001000100010001000100210082004E
:101CEE008208210001000100010001000100010035
:101CFE000100010001000100010001004200A200EC
:101D0E000309C619A832738D5DE7FFFFBEF7DFFF2B
:101D1E00DEFF893A031182000622FFFFFFFFFFF765
:101D2E0006126200410042016302EA1A0301030136
:101D3E007355820001000100010001000100010045
:101D4E000100010001000100010001000100E1009D
:101D5E00461CEC97F3AF690C0C1D860B0704E603CB
:101D6E00736726044404EA370404220121000100AB
:101D7E00010001000100010001000100010001004D
:101D8E00010001000100010001000100010001003D
:101D9E00010001000100A3088519C92ADACEBEFF91
:101DAE00DFFFFFFFFFFFFFFFFFFFFFFFFFFFFFFF55
:101DBE003CDFE208271AFFFFFFFFFFF7640941002F
:101DCE006200260205020402A401EE3D0202820018
:101DDE0001000100010001000100010001000100ED
:101DEE0001000100010001000100C1002703882F3E
:101DFE00AA46860D0504C613505F8E46ED3D870438
:101E0E00C504E84FEC574302A10021000100010078
:101E1E0001000100010001000100010001000100AC
:101E2E00010001000100010001000100010001009C
:101E3E000100C308DFFFFFFFFFFFFFFFFFFFFFFFF4
:101E4E00FFFFFFFFFFFFFFFFFFFFFFFFBEEF0309D7
:101E5E00261AFFFFFFFFFFFF6411620003016502F8
:101E6E00B03DE301280C0F4F6401A20022000100D7
:101E7E00010001000100010001000100010001004C
:101E8E000100010001004100A201CF772525AD67B9
:101E9E00440CD09FF8DFF7E7F5CFC915EE3EB04FF3
:101EAE00693F0B1E410120000100010001000100ED
:101EBE00010001000100010001000100010001000C
:101ECE00010001000100010001000100010082007B
:101EDE00559DFFFFFFFFFFFFFFFFFFFFDFFFFFFF30
:101EEE001BD70A3B672AA511C30881000622FFFFF4
:101EFE00FFFFFFFFC611A3006301E613E602A30175
:101F0E00A3018E2D4401CB2A6200010001000100C5
:101F1E0001000100010001000100010001000100AB
:101F2E0001000100E100C302EF9FF3BFF3B7E61417
:101F3E000C2FEE5FF59FF687E90C0E06A91EEA3F01
:101F4E008302A10000000100010001000100010058
:101F5E00010001000100010001000100010001006B
:101F6E0001000100010001000100210024090A4BBB
:101F7E00FFF7DFFFFFFFFFF74A43A722E511230913
:101F8E00C200620021006100271AFFFFFFFFFFFF62
:101F9E00071AE300A4016602A202E4010402E60AA3
:101FAE000401E408410001000100010001000100EC
:101FBE00010001000100010001000100010001000B
:101FCE004100E401A724C5142F6FE5146B1ED39FA7
:101FDE000B36670CCC450D1ECD5FA70E0A2E610188
:101FEE00410001000100010001000100010001009B
:101FFE0001000100010001000100010001000100CB
:10200E00010001000100010082000622DEEF6B4399
:10201E004A336A3BAC533BCFEE63C832A511C308BB
:10202E0061008200A812FFF7FFFFFFFF8722630106
:10203E00E502AE3D091D8402A602EB2B0301A501AC
:10204E006200010001000100010001000100010019
:10205E000100010001000100010001000000C100AB
:10206E004302AA5EA92D0605CB16C60486046C256E
:10207E004804EC5748058C27E6044002A1000100F5
:10208E00010001000100010001000100010001003A
:10209E00010001000100010001000100010001002A
:1020AE0001000100C200DAC6FFFFCC4B5CDFFFFF70
:1020BE00FFFFFFFFFFFFDFFFFFFF89326511030107
:1020CE00C81AFFFFFFFFFFFF4A23670A65022503B9
:1020DE002914491CD26FC401E609620021000100D7
:1020EE0001000100010001000100010001000100DA
:1020FE00010001000100010001004100A2010405E0
:10210E004C3EEE8765030704C614280DB3872A25B7
:10211E008A1529050404CA0F220941000100010095
:10212E000100010001000100010001000100010099
:10213E000100010001000100010001000100010089
:10214E002309DFFFFFFFFFFFFFFFFFFFFFFFFFFF83
:10215E00FFFFFFFFFFFFFFFFFFFF66121045FFFFB0
:10216E00FFFFFFFF0C348503240469258614850CBC
:10217E004503E301891B410001000100010001003C
:10218E000100010001000100010001000100010039
:10219E000100010001000100020104039077050C0B
:1021AE00040304038736670DD06F4A46E504C8154D
:1021BE0089042503E301C200610001000100010052
:1021CE0001000100010001000100010001000100F9
:1021DE00010001000100010001002100A519FFFF0F
:1021EE00FFFFFFFFDFFFDFFF7CCF7165FFFFFFFF0C
:1021FE00FFFFFFFFFFFF5ABFAA2BFFFFFFFFFFFFEF
:10220E00B7B76B2FEDAFEDAFF2D7F4EF2714C401D4
:10221E00A100010001000100010001000100010008
:10222E000100010001000100010001000100010098
:10223E0001000100A1008402F09FE503C302230206
:10224E002F876F9F4A2E2515EA25AF4FCA2EEE8790
:10225E000403C90B8301810021000100010001006C
:10226E000100010001000100010001000100010058
:10227E000100010001002100A519FFFFFFFF1596C7
:10228E00CB430C3498B6DFFFFFFFFFFFFFFFFFFFCE
:10229E00DCF7F0358923FFFFFFFFFFFFB7BFC8371D
:1022AE00ED7FD2CFFBFFF8F78D4EA2018200010029
:1022BE000100010001000100010001000100010008
:1022CE0001000100010001000100010001000100F8
:1022DE0041006209C5036A4563020402840A060CC2
:1022EE0027258B3D4B46F18F692E8D4E8E5F8403D5
:1022FE00EA2F0402E10021000100010001000100AB
:10230E0001000100010001000100010001000100B7
:10231E00010001002411DFF7FFFFFEF7A92BDDE717
:10232E00FFFFFFFFFFFFFFFFFFFFB9AF49152503BB
:10233E00481BFFF7FFFFFFFFFADFCEA7EDB7F8FF51
:10234E00F7FFD4DF8F664209210001000100010072
:10235E000100010001000100010001000100010067
:10236E000100010001000100010001000100C10097
:10237E00660BCB354203040A840A0B04EB15D7DF38
:10238E00F7E710778815105FF0672D3F4F1FAD37B9
:10239E00C402200181004100010001000100010082
:1023AE000000010001000100010001000100010018
:1023BE00C20017AEFFFFFFFFFFFFFFFFFFFFFFFF94
:1023CE00FFFFFFF7558FEB6F89054F5EEB33FFFF76
:1023DE00FFFFFFFFF7AEF2AF4E57EFB7AC56042438
:1023EE00620A8100010001000100010001000100EC
:1023FE0001000100010001000100010001000100C7
:10240E000100010001000100010041086201030406
:10241E00F1CF43132C4ED18F6C3E6C1DF397681584
:10242E00C5144704450304032603A502A6024C5611
:10243E0020024101A1004100010001000000010045
:10244E0001000100010001000100000061000722EF
:10245E00FFFFFFFFFFFFFFFFFFFFFFFFFFFFFFF786
:10246E00BFFFEC67AA06450C7696FFFFFFFFFFFF46
:10247E00BDE7C724440B4403F057C101C20021003D
:10248E000100010001000100010001000100010036
:10249E000100010001000100010001000100010026
:1024AE00010001000100010021016E76EFB7F087F7
:1024BE00630BF7D7105F8F268E47471D0A1E460CFB
:1024CE006503691C881CC402C603AC374605AD4EB5
:1024DE0021026101A1004100010001000100010083
:1024EE00000001000100210041008411FFFFFFFFE9
:1024FE00FFFFFFFFDFFFFEE7B03F8D37EB37EE8FBD
:10250E00A30C307FFFF7FFFFFFFFFFFF1AC7C70ABD
:10251E00A40162014101A20021000100010001009D
:10252E000100010001000100010001000100010095
:10253E000100010001000100010001000100010085
:10254E0001000100A100A302F3DFC50B4D3EE6031F
:10255E00B29F8835F5CFC414B49FC61C8E5E8B1DFA
:10256E0085048603A502E613A903ED770726EB770C
:10257E00E6120201A200C100C000A100820081008B
:10258E00C200220142018201C612FEF7DFF78D3C26
:10259E00E91BA60BE70DCC4F2A3F070567044C3D00
:1025AE00FFFFFFFFFFFFFFFFB8AE45024401A20091
:1025BE0042000100000001000100010001000100C5
:1025CE0001000100010001000100010001000100F5
:1025DE0001000100010001000100010001000100E5
:1025EE002100020102022F4ED06F051C0514D2AF3E
:1025FE000B1D3167682DAA2DE714F497660C2A146B
:10260E00F166260364036B2D491D28062603050279
:10261E002803470C091DA704620183012A154A1FCE
:10262E00E9034C17E4026B175037A712E40144027A
:10263E00290C2C4624048804E91CDEEFFFFFFFFF63
:10264E00FFFFFFFFCB336401620021000100010098
:10265E000100010001000100010001000100010064
:10266E000100010001000100010001000100010054
:10267E000100010001000100010001000100410004
:10268E00A10062012502872D44144A450503061454
:10269E00CB1D430C2715EE57E5030804670BC81333
:1026AE00AC452504A5034503C60A6C0CC70A490CA4
:1026BE00C3018301C602490C2303A3028D2DB05F13
:1026CE00A302A202620225024A1B67026503C82406
:1026DE0071674E47FCEFFFFFFFFFFFFFFFFFBFF7E6
:1026EE000713430142000100010001000100010037
:1026FE0001000100010001000100010001000100C4
:10270E0001000100010001000100010001000100B3
:10271E000100010001000100010001000100610043
:10272E002101A202F3A72F4F8302A302A4038F4E0F
:10273E0087040C2FE70C0B35F7CFF7C7F6B7A904B4
:10274E00C7039667A603651305034702A401840118
:10275E00E4014502C402A3026302C4022403F27F11
:10276E0006038302FDDFD5772F6FE81C705EFEF740
:10277E00FFFFFFFFFFFFFFFFFFFF2A3CA4096200E0
:10278E002100010001000100010001000100010013
:10279E000100010001000100010001000100010023
:1027AE000100010001000100010001000100010013
:1027BE000100010001000100010001006100620141
:1027CE006F4F6926715EC5022A15F7D70614EB1CEA
:1027DE00070CF5BFF5DF71872D5EF7C74C35280C5A
:1027EE004B2D873D6966260B6402A60B8E3D0603B4
:1027FE000914EB34D29F4403C713AD2ED17FD0679B
:10280E00491CDFF7FDF7DDF7FFFFFFFFFFFFFFFFBF
:10281E00FFFFFFFF8B44850B02012100000001002A
:10282E000100010001000100010001000100010092
:10283E000100010001000100010001000100010082
:10284E000100010001000100010001000100010072
:10285E00010001000100010001008100620163011D
:10286E00A201D14F0503450B8703CA44A70B4E5750
:10287E008E66C60CCA25B18F870CAB3DF6DFF2E72C
:10288E00CF9F661C8513F29F6E4E660327148E9F94
:10289E00261C4825EE5D8E9F052D880DF4AF8C25E8
:1028AE00DFFFFFFFFFFFFFFFFFFFDFFF149E304F35
:1028BE004604C402A2000100000001000100010054
:1028CE0001000100010001000100010001000100F2
:1028DE0001000100010001000100010001000100E2
:1028EE0001000100010001000100010001000100D2
:1028FE00010001000100000041006100A100A301E0
:10290E00D48FA502CF4D325F727EC60B0604725F66
:10291E00CB47E4032E3ECB35AD87F3CFEA564E8F31
:10292E00A524861C0504E814861CF2A70615C50C02
:10293E00F4C7F5D7F19FA50CC60CB16F6A1D2E55C5
:10294E00FDD7DDDF96A62A3DF5C7C937CF4704026E
:10295E0081000100010001000100010001000100E1
:10296E000100010001000100010001000100010051
:10297E000100010001000100010001000100010041
:10298E000100010001000100010001000100010031
:10299E000100010001000100210082004201092D09
:1029AE000B35840A26032A0C7277C714E83DE6031A
:1029BE008803C50B107F3387F3BF6D3ECD26280DE0
:1029CE002604F4A7F1A7B1672B660B46E41407158E
:1029DE00CD7F26150615E94D52876D5EF297AA3DFD
:1029EE00929FF6F7D0BFF197280302012100010054
:1029FE0001000100010001000100010001000100C1
:102A0E0001000100010001000100010001000100B0
:102A1E0001000100010001000100010001000100A0
:102A2E000100010001000100010001000100010090
:102A3E00010001000000210082000201C301A9244F
:102A4E000E6EA513480CF4A78E77F1774C2526034E
:102A5E00A41B4C66EE7FA904ED8FC503A80CD16FA5
:102A6E0065156804903F45044F47620C64044805A1
:102A7E00E50BB08FF3C76614EA55F4E7F0D7AB7FDA
:102A8E00AE5F070C4301410001000100010001008F
:102A9E000100010001000100010001000100010020
:102AAE000100010001000100010001000100010010
:102ABE000100010001000100010001000100010000
:102ACE0001000100010001000100010001000100F0
:102ADE0001000100010041004101AC26F5F7F7CFDE
:102AEE00A71C0503A50364034C2D86039156F3BF63
:102AFE004F4F0D3E2703A503420345042504430310
:102B0E00E6038F36F4B7ED87EC4FE603240B840310
:102B1E004A15A402451BF097A955C50AC3094201DF
:102B2E00410001000100010001000100010001004F
:102B3E00010001000100010001000100010001007F
:102B4E00010001000100010001000100010001006F
:102B5E00010001000100010001000100010001005F
:102B6E00010001000100010001000100010001004F
:102B7E000100010081008201020A821182016502B8
:102B8E00913F906705038502C90BF28F0703C70BB0
:102B9E00114FA502A4030B6F8B2E906F0E470604E8
:102BAE002725420B6203A302CF67A50BA2090102E0
:102BBE008201A2014201C100620021000100010058
:102BCE0001000100010001000100010001000100EF
:102BDE0001000100010001000100010001000100DF
:102BEE0001000100010001000100010001000100CF
:102BFE0001000100010001000100010001000100BF
:102C0E0001000100010001000100010001000100AE
:102C1E0001004100810061006100C20083012302B6
:102C2E00E70AEA2BCF3F103EA302E2020302630241
:102C3E00E502640BC40AC402AF6FF1A7715F6502AF
:102C4E004303230263010201C100A0008100610061
:102C5E00210001000100000001000100010001003F
:102C6E00010001000100010001000100010001004E
:102C7E00010001000100010001000100010001003E
:102C8E00010001000100010001000100010001002E
:102C9E00010001000100010001000100010001001E
:102CAE00010001000100010001000100010001000E
:102CBE000100010001006100C200A301E200C20098
:102CCE00A200020923020402A20145020402A60385
:102CDE008401E3012514690DA3094409AD2D2302D6
:102CEE008000220001080100000001000100010027
:102CFE0001000100010001000100010001000100BE
:102D0E0001000100010001000100010001000100AD
:102D1E00010001000100010001000100010001009D
:102D2E00010001000100010001000100010001008D
:102D3E00010001000100010001000100010001007D
:102D4E00010001000100010001000100010001006D
:102D5E00010001002100210021002100210061005D
:102D6E00A100C3086D1CE2008200A2008100C10018
:102D7E0042016201A20061006100610021000100B8
:102D8E00010001000100010001000100010001002D
:102D9E00010001000100010001000100010001001D
:102DAE00010001000100010001000100010001000D
:102DBE0001000100010001000100010001000100FD
:102DCE0001000100010001000100010001000100ED
:102DDE0001000100010001000100010001000100DD
:102DEE0001000100010001000100010001000100CD
:102DFE00010001000100010001000100010042007C
:102E0E0042002100010001000100210041004100AB
:102E1E00010001000100010001000100010001009C
:102E2E00010001000100010001000100010001008C
:102E3E00010001000100010001000100010001007C
:102E4E00010001000100010001000100010001006C
:106D1700C115C111C116C114C113C1124200DC0053
:106D2700004200DE00004200E000004200E20000F6
:03000B000266D0BA
:0D66D000C0E0C0F0C083C082C0D075D0080B
:1066DD009000DDE004F070069000DCE004F0C39063
:1066ED0000DDE094649000DCE094004006E4F0A34B
:1066FD00F0D2157D017F017E00126291900101E0C3
:10670D007002A3E06002D2163011279000DFE00482
:10671D00F070069000DEE004F0B2A5D39000DFE04B
:10672D00940A9000DEE094004008E4F0A3F0C2115A
:10673D00C2A59000E1E004F070069000E0E004F0E6
:10674D009000E1E030E004D2138002D2129000E319
:10675D00E004F070069000E2E004F0C39000E3E086
:10676D0094019000E2E094004006E4F0A3F0D2140E
:0B677D00D0D0D082D083D0F0D0E0322A
:10712600E5A254F34404F5A2E4F5CF75CED075CDAF
:10713600C0D2807F01FE127290C2807F0A7E00124A
:0B7146007290D2807F787E0002729071
:0F73AE00C2A48FCFE5CD30E7FB75CDC0D2A422AE
:0573F400C2810273AE2E
:0573D5001273F4E4FF57
:0573DA00D2810273AE38
:05731800E0FEA3E0FF10
:10731D00AD07AC06D281ECFF1273AEAF050273AEB2
:10708C0090007CEEF0A3EFF0A3ECF0A3EDF07F2AE0
:10709C001273F490007C127318AE02AF0312731DBE
:1070AC007F2B1273F4A31273189000821273187F43
:0470BC002C0273F43B
:086CB900900058EEF0A3EFF08B
:106CC1009000827401F0A3743FF07BEF7A00E4FD41
:106CD100FCFFFE12708CE490005AF0A3F0E4FBFA82
:106CE1009000581273180BBB00010ABA01F2BB40A5
:106CF100EF90005BE004F0700690005AE004F0C3EE
:0E6D010090005BE094F090005AE0940040CFC8
:016D0F002261
:106F370090005EFEE0FCA3E0FDC390005BE09DFDDA
:066F470090005AE09CFCE2
:106F4D00AB07AA068D828C83C006C007AE83AF82C5
:106F5D00900082EEF0A3EFF0D007D00612708C9067
:0A6F6D0000F0E0FEA3E0FF02731D38
:0E54D100900060EEF0A3EFF0A3ECF0A3EDF07E
:1054DF00E490006AF0A3F0A3F0A3F0900060E0FE68
:1054EF00A3E0FFC3EB9FFFEA9E90006EF0A3EFF0E7
:1054FF00900062E0FAA3E0FBC3900067E09BFE9090
:10550F000066E09A900070F0A3CEF0900060E0FF8C
:10551F00A3E0900078CFF0A3EFF0A3EAF0A3EBF0B5
:10552F0090006EE0FEA3E0FFD39400EE64809480C1
:10553F00400A900074E4F0A304F08021EF4E70084D
:10554F00900074F0A3F0801574FF900074F0A3F036
:10555F00C3E49FFFE49E90006EF0A3EFF090007005
:10556F00E0FEA3E0FFD39400EE64809480400A90A5
:10557F000076E4F0A304F08021EF4E7008900076DF
:10558F00F0A3F0801574FF900076F0A3F0C3E49FB2
:10559F00FFE49E900070F0A3EFF0900070E0FEA388
:1055AF00E0FF90006EE0FCA3E0FDD39FEE6480F877
:1055BF00EC6480989000724007ECF0A3EDF080054A
:1055CF00EEF0A3EFF0E4900068F0A3F0900073E02A
:1055DF002401FF900072E03400FED3900069E09F39
:1055EF00900068E09E40030256BB900078E0FEA357
:1055FF00E0FFA3E0FCA3E0FD126F4D90006EE0FE14
:10560F00A3E0FF90006BE02FF090006AE03EF09077
:10561F000070E0FEA3E0FF90006DE02FF090006CB3
:10562F00E03EF0900072E0FEA3E0FF90006AE0FC25
:10563F00A3E0FDD39FEE6480F8EC6480984020EDEA
:10564F009FFFEC9E90006AF0A3EFF0900074E0FED5
:10565F00A3E0FF900079E02FF0900078E03EF0900B
:10566F000072E0FEA3E0FF90006CE0FCA3E0FDD32E
:10567F009FEE6480F8EC6480984020ED9FFFEC9ED5
:10568F0090006CF0A3EFF0900076E0FEA3E0FF90A7
:10569F00007BE02FF090007AE03EF0900069E0048C
:0C56AF00F07006900068E004F00255DB8B
:0156BB0022CC
:1068340090005CEAF0A3EBF0900058EEF0A3EFF0C8
:10684400A3ECF0A3EDF0C007A3E0FAA3E0FB9000F3
:106854005AE0FFA3E0900066CFF0A3EFF0D0071258
:1068640054D1900058E0FAA3E0FBFFAE02C007A3A6
:10687400E0FCA3E0FD90005EE0FFA3E0900066CFA3
:10688400F0A3EFF0D0071254D190005EE0FCA3E037
:10689400FD90005CE0FAA3E0FBA3E0FFA3E090001E
:1068A40066CFF0A3EFF0900058E0FEA3E0FF12548F
:1068B400D190005CE0FAA3E0FBFFAE02C0079000B9
:1068C4005AE0FCA3E0FD90005EE0FFA3E0900066C8
:0A68D400CFF0A3EFF0D0070254D17B
:0E56BC00900058EEF0A3EFF0A3ECF0A3EDF099
:1056CA00E4A3F0A3F0EBFF7E00A3EEF0A3EFF02536
:1056DA00E0FFEE33FEC374039F900061F0E49E90F6
:1056EA000060F090005EE0FEA3E0FF90005CE0FC4A
:1056FA00A3E0FDD39FEE6480F8EC64809840030237
:10570A005893900059E02DFF900058E03C126F37F3
:10571A0090005EE0FEA3E0FF900059E02FFF9000AA
:10572A0058E03E90005C126F3A90005EE0FEA3E003
:10573A00FF900059E02FFF900058E03EFE90005C79
:10574A00E0FCA3E0FD90005BE02DFD90005AE03CF8
:10575A00FC126F4D90005CE0FEA3E0FF900059E060
:10576A002FFF900058E03EFE90005EE0FCA3E0FDB3
:10577A0090005BE02DFD90005AE03CFC126F4D90CA
:10578A00005CE0FEA3E0FFC3900059E09FFF900099
:10579A0058E09EFE90005EE0FCA3E0FD90005BE016
:1057AA002DFD90005AE03CFC126F4D90005EE0FE29
:1057BA00A3E0FFC3900059E09FFF900058E09EFECF
:1057CA0090005CE0FCA3E0FD90005BE02DFD900002
:1057DA005AE03CFC126F4D90005CE0FEA3E0FFC370
:1057EA00900059E09FFF900058E09E126F3790009A
:1057FA005EE0FEA3E0FFC3900059E09FFF900058CF
:10580A00E09EFE90005C126F3B90005DE004F07039
:10581A000690005CE004F0C3900060E0648094802D
:10582A00502590005CE0FEA3E07802C333CE33CE6D
:10583A00D8F92406FFE43EFE900061E02FF09000C4
:10584A0060E03EF00256ED90005EE0FEA3E0FFC38A
:10585A0090005DE09FFF90005CE09EFEEF7802C33F
:10586A0033CE33CED8F9240AFFE43EFE900061E03D
:10587A002FF0900060E03EF090005FE024FFF0908F
:09588A00005EE034FFF00256ED6F
:0158930022F2
:106A8900900058EEF0A3EFF0A3ECF0A3EDF0A3EA29
:046A9900F0A3EBF08B
:106A9D00C007A3E0FFA3E0900082CFF0A3EFF0D0FA
:106AAD000712708C90005AE0FFA3E0900062CFF0C7
:106ABD00A3EFF090005EE0FEA3E0FFD3900063E053
:106ACD009F900062E09E5034900058E0FEA3E0FBE2
:106ADD00AA06C390005DE09B90005CE09A400D908B
:106AED0000601273180BBB00010A80E6900063E092
:0C6AFD0004F070BF900062E004F080B76D
:016B09002269
:105A2D007FCB1273F47F391273DA7F2C1273DAE4A1
:105A3D00FF1273DA7F341273DA7F021273DA7FCFBB
:105A4D001273D57FC11273DA7F301273DA7FE812C9
:105A5D0073F47F851273DAE4FF1273DA7F781273B1
:105A6D00DA7FEA1273D51273DA7FED1273F47F6465
:105A7D001273DA7F031273DA7F121273DA7F8112D7
:105A8D0073DA7FF71273F47F201273DA7FC012730B
:105A9D00F47F231273DA7FC11273F47F101273DA5D
:105AAD007FC51273F47F3E1273DA7F281273DA7F8B
:105ABD00C71273F47F861273DA7F361273F47F4840
:105ACD001273DA7F3A1273F47F551273DA7FB112C3
:105ADD0073D57F181273DA7FB61273F47F081273C1
:105AED00DA7F821273DA7F271273DA7FF21273D59F
:105AFD007F261273F47F011273DA7FE01273F47F45
:105B0D000F1273DA7F311273DA7F2B1273DA7F0C77
:105B1D001273DA7F0E1273DA7F081273DA7F4E1268
:105B2D0073DA7FF11273DA7F371273DA7F0712732C
:105B3D00DA7F101273DA7F031273DA7F0E1273DAC3
:105B4D007F091273DAE4FF1273DA7FE11273D57FE6
:105B5D000E1273DA7F141273DA7F031273DA7F1168
:105B6D001273DA7F071273DA7F311273DA7FC11283
:105B7D0073DA7F481273DA7F081273DA7F0F1273AC
:105B8D00DA7F0C1273DA7F311273DA7F361273DA21
:105B9D007F0F1273DA7F111273F47F787E00127209
:0B5BAD00907F291273F47F2C0273F428
:10737D007F281273F47F147E001272907F100273B7
:01738D00F40B
:107302007F111273F47F787E001272907F291273BC
:06731200F47F2C0273F46D
:06589400FBE4900069F046
:10589A00900064EEF0A3EFF0A3ECF0A3EDF0A3EB1D
:0158AA00F00D
:1058AB00900064E0FEA3E0FF90006CEEF0A3EFF03D
:1058BB009000F0E0FDA3E090006ECDF0A3EDF0D3EF
:1058CB00EF94E0EE94004003025A2C900066E0FC4B
:1058DB00A3E0FD9430EC94014003025A2C90006835
:1058EB00E024E0F0900064E0FAA3E0FFAE02C00613
:1058FB00C0072407FBE43AFAA3E0FEA3E0240FFF62
:10590B00E43E900082F0A3EFF0D007D00612708C2B
:10591B00900069E060030259B4F9900068E075F0FB
:10592B0010A4FFE97C002FFFEC35F0FE74D42FF5AB
:10593B008274423EF583E49390006AF0E4A3F09006
:10594B00006AE030E00590006E80039000F2E0FF0B
:10595B00A3E09000F0CFF0A3EFF09000F0127318DB
:10596B0090006AE0C313F0900065E004F0700690BD
:10597B000064E004F090006BE004F0E0C394084096
:10598B00BE90006CE0FFA3E0900064CFF0A3EFF0BB
:10599B00900067E004F07006900066E004F009E9FF
:1059AB00641060030259258069E4F9900068E07582
:1059BB00F010A4FFE97C002FFFEC35F0FE74D42F20
:1059CB00F58274423EF583E49390006AF0E4A3F011
:1059DB0090006BE0FFC39408503390006AE030E016
:1059EB001F900065E02FFF900064E03400FEE9FD9E
:1059FB00900067E02DFD900066E03400FC126F4DC7
:105A0B0090006AE0C313F0A3E004F080C309E9B48B
:105A1B00109990006EE0FFA3E09000F0CFF0A3EFA1
:015A2B00F08A
:015A2C002257
:086D5D00900064EFF0A3EDF0DB
:106D6500A3123B1200000001900065E0FF14F0EF54
:106D75006020A3E0F8A3E0F9A3E0FAA3E0FB90000C
:106D850064E0FFE4FCFDFE123990900066123B06BC
:106D950080D6900066E0FCA3E0FDA3E0FEA3E0FF43
:016DA50022CB
:0E637A00900058EEF0A3EFF0A3ECF0A3EDF0CE
:10638800E4900063F090005CA3A3E0FEA3E0FFE4C8
:10639800FCFD90005C123B06E4900061F090006008
:1063A800E0FFA3E0FEC39F400302645AC3EF9E14BC
:1063B800FD7F0A126D5DA804A905AA06AB07900027
:1063C8005CE0FCA3E0FDA3E0FEA3E0FF123A1BE4BF
:1063D8007B0AFAF9F8123A1B900062EBF0A3E0701E
:1063E8003B900060E014FFA3E0FEC39F502EA3E0A3
:1063F8007024EE75F008A4FF900059E02FFF90007C
:1064080058E035F0FE90005AE0FCA3E0FDE490006F
:1064180069F07B2080309000637401F0900061E0A7
:1064280075F008A4FF900059E02FFF900058E03560
:10643800F0FE90005AE0FCA3E0FD900062E02430FA
:10644800FBE4900069F012589A900061E004F002B1
:0264580063A53A
:01645A00221F
:106A0700900058EEF0A3EFF0A3ECF0A3EDF0A3EAAB
:046A1700F0A3EBF00D
:106A1B00E490005FF090005EE0F9A3E0FFC39950B3
:106A2B005CC3E99F14FD7F0A126D5DA804A905AA3A
:106A3B0006AB0790005CE0FEA3E0FFE4FCFD123A1E
:106A4B001BE47B0AFAF9F8123A1BAF03900060EFD4
:106A5B00F090005FE075F008A4FF900059E02FFF65
:106A6B00900058E035F0FE90005AE0FCA3E0FDEBFF
:0D6A7B00243012589490005FE004F08098E1
:016A880022EB
:105BB800900060EEF0A3EFF0900064EBF0A3EAF041
:0B5BC800A3E9F0900062ECF0A3EDF008
:105BD300900060E0FAA3E0FFAE02C006C007240F06
:105BE300FBE43AFAA3E0FEA3E0240FFFE43E9000B7
:105BF30082F0A3EFF0D007D00612708CE490006D12
:105C0300F0A3F090006DE0FEA3E0FFC39440EE9498
:105C1300004003025CFA900064E0FBA3E0FAA3E017
:105C2300F912379EFD904D4775F023EF123B43EE7B
:105C330075F023A42583F583E4936D6003025CE987
:105C43009000011237B7FF90006DE0FCA3E0904D88
:105C53004875F023123B43EC75F023A42583F583A9
:0A5C6300E4936F6003025CE9FBFAB2
:105C6D0090006DE0FEA3E0904D4A75F023123B438A
:105C7D00EE75F023A42583F583E5822BF582E5836C
:105C8D003AF583E493FF90006FE4F0A3EFF0E49016
:105C9D00006BF0A3F0900070E030E7059000678096
:105CAD0003900069127318900070E025E0F09000E9
:105CBD006FE033F090006CE004F0700690006BE044
:105CCD0004F0C390006CE0940890006BE0940040E9
:015CDD00C402
:105CDE000BBB00010AEB64204A708490006EE00456
:0C5CEE00F0700690006DE004F0025C060F
:015CFA002287
:105E3E00900058EEF0A3EFF0A3ECF0A3EDF0A3EB7F
:075E4E00F0A3EAF0A3E9F064
:105E5500E4A3F090005CE0FBA3E0FAA3E0F91237BD
:105E65009E7003025F74C394805069900059E0945A
:105E7500E0900058E094004012E4F0A3F090005B3D
:105E8500E02410F090005AE03400F0D390005BE07D
:105E9500943090005AE09401400BE4900058F0A330
:105EA500F0A3F0A3F0900058E0FEA3E0FFA3E0FC10
:105EB500A3E0FD12379E125894900059E02408F093
:105EC500900058E03400F090005DE475F001123860
:105ED500B5025E58D3900059E094D0900058E094F4
:105EE500004012E4F0A3F090005BE02420F0900065
:105EF5005AE03400F0D390005BE0942090005AE023
:105F05009401400BE4900058F0A3F0A3F0A3F090A7
:105F1500005FE075F008A4FF900059E02FFF9000A6
:105F250058E035F0FEC00790005AE0FCA3E0FDA361
:105F3500E0FBA3E0FAA3E0F99000F0E0FFA3E09016
:105F45000067CFF0A3EFF09000F2E0FFA3E0900030
:105F550069CFF0A3EFF0D007125BB890005DE47550
:0F5F6500F0021238B590005FE02402F0025E589F
:015F7400220A
:105CFB00900060EEF0A3EFF0900064EBF0A3EAF0FD
:0B5D0B00A3E9F0900062ECF0A3EDF0C3
:105D1600900060E0FAA3E0FFAE02C006C007241FB1
:105D2600FBE43AFAA3E0FEA3E0241FFFE43E900062
:105D360082F0A3EFF0D007D00612708CE490006DCD
:105D4600F0A3F090006DE0FEA3E0FFC3940FEE9485
:105D5600004003025E3D900064E0FBA3E0FAA3E08E
:105D6600F912379EFD90609775F083EF123B43EE74
:105D760075F083A42583F583E4936D6003025E2C9E
:105D86009000011237B7FF90006DE0FCA3E0906031
:105D96009875F083123B43EC75F083A42583F58355
:0A5DA600E4936F6003025E2CFBFA29
:105DB00090006DE0FEA3E090609A75F083123B4383
:105DC000EE75F083A42583F583E5822BF582E583C8
:105DD0003AF583E493FF90006FE4F0A3EFF0E490D2
:105DE000006BF0A3F0900070E030E7059000678052
:105DF00003900069127318900070E025E0F09000A5
:105E00006FE033F090006CE004F0700690006BE0FF
:105E100004F0C390006CE0940890006BE0940040A4
:015E2000C4BD
:105E21000BBB00010AEB64804A708490006EE004B1
:0C5E3100F0700690006DE004F0025D4986
:015E3D002242
:106B0A00900058EEF0A3EFF0A3ECF0A3EDF0A3EBA6
:076B1A00F0A3EAF0A3E9F08B
:106B2100E4A3F090005CE0FBA3E0FAA3E0F91237E4
:106B31009E605690005FE075F010A4FF900059E050
:106B41002FFF900058E035F0FEC00790005AE0FC9E
:106B5100A3E0FD9000F0E0FFA3E0900067CFF0A379
:106B6100EFF09000F2E0FFA3E0900069CFF0A3EF17
:106B7100F0D007125CFB90005DE475F0021238B5AD
:096B810090005FE02402F0809A0C
:016B8A0022E8
:10645B00900058EBF0A3EAF0A3E9F0A3ECF0FEA355
:03646B00EDF0FF52
:10646E00C006C007A3E0FCA3E0FDA3E0FEA3E0FF8F
:10647E0090005BE0FAA3E02FFFEA3ECF24FFFBEF94
:10648E0034FFFA900061E0FEA3E0FF90005DE0F8BB
:10649E00A3E02FFFE83ECF24FFCF34FF900082F021
:1064AE00A3EFF0D007D00612708CE4900063F0A337
:1064BE00F0900061E0FCA3E0FD90005FE0FEA3E041
:1064CE00FF123818900063E0FCA3E0FDC39FEC9E22
:1064DE005055D281ED25E0FFEC33FE900058E0FBE5
:1064EE00A3E0FAA3E02FF9EA3EFA9000011237B7C3
:1064FE00FF1273AE900064E025E0FF900063E0337E
:10650E00FE900058E0FBA3E0FAA3E0F98F828E83A1
:10651E001237B7FF1273AE900064E004F0709290E1
:07652E000063E004F0808A25
:016535002243
:0773E60025642C25640A0058
:076D3700C19A4201010000B6
:106B8B00900058EBF0A3EAF0A3E9F0AF05900058A2
:106B9B00E0FBA3E0FAA3E0F9EC8FF012394490008C
:106BAB005DE0FEA3E0FF900058E0FBA3E0FAA3E05A
:106BBB00F9900002EE8FF0123963900058E0FBA3BE
:106BCB00E0FAA3E0F91238E1FF900062E5F0F0A3E0
:106BDB00EFF090000212390CFF900064E5F0F0A387
:0B6BEB00EFF07BFF7A7379E602492F80
:0B73CA00D2A0C2A55395DF43962022FD
:0E6C5800900058EEF0A3EFF0A3ECF0A3EDF0E7
:106C6600E4A3F0A3F0900058E0FAA3E0FBA3E0FE53
:106C7600A3E0FFAD03AC021238187C017DF4123894
:106C86002AC390005DE09F90005CE09E5022B2A572
:106C9600E4F9F87F207EA17D07FC126DEB127341AB
:106CA60090005DE004F070BD90005CE004F080B5FB
:026CB600C2A575
:016CB80022B9
:0562910090004CEDF04F
:1062960030951E30961B30971830B31530C6123025
:1062A600B20F30B50C30C20930B40630C7030263F2
:1062B60050900100E004F0EF2401FFE43EFEE0C34D
:1062C6009FE49E5003026379E4F0C21A209506A368
:1062D600F0A304F02220960A900101E4F0A37402D0
:1062E600F02220970A900101E4F0A37403F0222023
:1062F600B30A900101E4F0A37404F02220C60A90C8
:106306000101E4F0A37405F02220B20A900101E431
:10631600F0A37406F02220B50A900101E4F0A374FC
:1063260007F02220C20A900101E4F0A37408F022CB
:1063360020B40A900101E4F0A37409F02220C72CCE
:10634600900101E4F0A3740AF02230951F30961CE8
:1063560030971930B31630C61330B21030B50D3041
:10636600C20A30B40730C704D21A8000E490010193
:03637600F0A3F0A1
:016379002201
:1066040048656C6C6F2C776F726C642100616263F7
:106614006465666768696A6B6C6D6E6F70717273BE
:106624007475767778797A2100C4BDCBBE00CEAA82
:10663400D2BBCFDFCEA2C3A3E3BFE3BDD2BBD2E2C2
:10664400B9C2D0D0A3AC00D5E2D6DAC9FADCBFDC3B
:10665400BFCBADB2BBD4F8C8E7B4CBC8CED0D4A3BB
:10666400A100C7E0B4BA00616463303A202020205E
:106674002000616463313A2020202020006164639B
:10668400323A202020202000616463333A20202005
:106694002020006C695F766F6C746167653A202016
:1066A4002020202056002E004E524632344C3031E9
:1066B4005F53746174653A2052785F4D6F6465006E
:0C66C400646972656374696F6EA3BA00AC
:076D3E004400970000000073
:103B9500E4900053F0A3123B12000000007F0A7E60
:103BA500001272907F0A7E00127341C2A61271261E
:103BB500125A2D12737D7F647E0012729012730269
:103BC5007F007EF8126CB97F207EFD126CB97FE014
:103BD5007EFF126CB97FE07E07126CB97FFF7E070E
:103BE500126CB97F1F7E00126CB97F1F7EF8126CB4
:103BF500B974FFFFFE126CB9E4FFFE126CB99000B8
:103C0500F07407F0A374E0F0E49000F2F0A3F07B09
:103C1500FF7A667904FDFCFFFE125E3E9000F0E43B
:103C2500F0A3741FF0900066E4F0A3740FF07BF02E
:103C35007A00E4FDFC7F64FE1254D190005E7405A9
:103C4500F074FFFBFA7D107C00E4FFFE126A07901A
:103C5500005C123B123ADE68B19000607409F07D99
:103C6500107C007F647E0012637A9000F074FFF090
:103C7500A374E0F090004DE4F0A37420F090004DA3
:103C8500E0FCA3E0FDC39440EC9401501C7BFF7A5B
:103C9500667911E4FFFE125E3E90004EE02410F0BE
:103CA50090004DE03400F080D4D2A67FF47E01125E
:103CB5007290C2A67FF47E01127290E4FFFE126C30
:103CC500B97BFF7A00790E90005DE4F0A37478F07B
:103CD500A3E4F0A3744EF0A3E4F0A37450F0FD7CCC
:103CE5000012645B7FD07E07127290E4FFFE126CB7
:103CF500B99000F074F8F0A3E4F090005EF0A374BE
:103D05003CF07BEF7A00E4FDFCFFFE126834900086
:103D1500F074F8F0A3741FF07BFF7A66792D7D02AD
:103D25007C007F507E00125E3E7BFF7A6679327D95
:103D3500167C007F107E00125E3E7BFF7A66794B13
:103D45007D2A7C007F087E00125E3E9000F074079D
:103D5500F0A374FFF0FB7A6679667DA07C007F5046
:103D65007E00126B0A9000F07407F0A374E0F07BFC
:103D7500307DB07C007F707E001256BC7FF47E01E2
:103D8500127290127270C2A690004DE4F0A374FFF7
:103D9500F090004DE0FEA3E0FFD39400EE940050B8
:103DA5001B8FEB8FFB7F147E0012729090004EE00C
:103DB50024FFF090004DE034FFF080D5D2A6E490CA
:103DC500004DF0A3F090004DE0FEA3E0FFC394FF8B
:103DD500EE9400501B8FEB8FFB7F147E00127290C8
:103DE50090004EE004F070DD90004DE004F080D5C9
:103DF5007FE87E03127290E4FFFE126CB91273CA5B
:103E05007DE87C037FF47E01126C5812739F90004D
:103E1500F07407F0A374E0F0E49000F2F0A3F07BF7
:103E2500FF7A66796BFDFCFFFE125E3E7BFF7A66CC
:103E350079767D107C00E4FFFE125E3E7BFF7A669C
:103E45007981E4FDFC7F78FE125E3E7BFF7A667920
:103E55008C7D107C007F787E00125E3E7BFF7A664B
:103E650079977D207C00E4FFFE125E3E7BFF7A663B
:103E750079AA7D207C007F687E00125E3E1273ED7C
:103E8500126DA67BFF7A6679AC7D307C00E4FFFE7F
:103E9500125E3E12722D7F647E001272909000F0C9
:103EA50074F8F0A3E4F090006604F0A3743FF07B8F
:103EB500EF7A00FD7C01E4FFFE1254D1900066E428
:103EC500F0A3748BF07BEF7A00FD7C00E4FFFE121B
:103ED50054D1900066E4F0A374E5F07BEF7A00FD21
:103EE5007C00E4FFFE1254D11273DF7F647E001262
:103EF50072909000F07407F0A374E0F07B1F7D646E
:103F05007C007F787E001256BC7BFF7A6679C47D83
:103F1500407C00E4FFFE125E3E7F647E0012719ECF
:103F25007F007EC27D017C00126BF6E4F59990005E
:103F35004DF0A3F0A3F0A3F0A3F0A3F07B017A006A
:103F450079BB126FB2EF70030240049000BBE064CE
:103F5500016003024004A3E0640260030240049090
:103F650000BEE0900053F0900050E004F070069021
:103F7500004FE004F0C3900050E094F090004FE053
:103F85009400404BE4F0A3F090005E04F0A3743E6F
:103F9500F0E4A3F0A3F07BEFFA7D8CFCFFFE126A40
:103FA500899000F074F8F0A3E4F09000F2F0A3F02B
:103FB500900066F0A374E5F07BEF7A00FD7C00E4E9
:103FC500FFFE1254D19000F07407F0A374E0F09056
:103FD50000BDE090004FB42B14E0FEA3E0FF90007D
:103FE50053E0FDC374E59DFDE49400800EE0FEA35F
:103FF500E0FF900053E024E5FDE433FC126F4D3003
:104005001504C215B2A0301302C213301202C21237
:10401500201403024292C2149000F07407F0A374B6
:10402500E0F090004EE004F0700690004DE004F0E2
:1040350090004DE0FEA3E0FFEE60030240F4EF24A4
:10404500FE602F14604C1460681470030240D6247F
:104055000460030240F4E4FF12732D7E009000A378
:10406500EEF0FAA3EFF0FB90005E7403F0E4FDFCC4
:10407500801B7F0112732D7E009000A5EEF0FAA340
:10408500EFF0FB90005E7403F07D107C007F300242
:1040950041557F0212732D7E009000A7EEF0FAA322
:1040A500EFF0FB90005E7403F0E4FDFC7FA8024195
:1040B500557F0312732D7E009000A9EEF0FAA3EF51
:1040C500F0FB90005E7403F07D107C007FA8024138
:1040D500557F0412732DAC07E41233877BE37AA571
:1040E500799B783C1231C6900097123B068064E4B8
:1040F50090004DF0A3F0900097E0FCA3E0FDA3E055
:10410500FEA3E0FF1233BBAB07AA0690005E740165
:10411500F07D207C007F607E00126A07E4FFFE7D53
:10412500C87C42900097E0F8A3E0F9A3E0FAA3E089
:10413500FB1231C61233BB7C007D6412387FAA04A2
:10414500AB0590005E7402F07D207C007F707E00E0
:10415500126A07900052E004F07006900051E004E6
:10416500F0900052E020E0030242019000A5E0FE3D
:10417500A3E0FFC3EE9400401BD3EF9450EE9400F0
:1041850050127B017A0079AD90005DE4F0A304F054
:10419500FD0242539000A5E0FEA3E0FFC394AAEE02
:1041A5009400401CD3EF94FFEE940050137B017AEA
:1041B50000799B90005DE4F0A304F07D0402425376
:1041C5009000AFE07004A3E0640170117B017A00F8
:1041D50079AD90005DF0A3F07D0102427190009DE4
:1041E500E07004A3E0640160030242927B017A005F
:1041F500799B90005DF0A3F07D0480709000A3E0B2
:10420500FEA3E0FFC3EE9400401BD3EF9450EE9461
:104215000050127B017A00799390005DE4F0A304CD
:10422500F07D0380299000A3E0FEA3E0FFC394AADC
:10423500EE9400401DD3EF94FFEE940050147B01E3
:104245007A00798F90005DE4F0A304F07D027C0094
:104255008038900095E07004A3E0640170117B0143
:104265007A00799390005DF0A3F07D03FC801B90AC
:104275000091E07004A3E0640170127B017A00797B
:104285008F90005DF0A3F07D02FC126B8B2016036E
:10429500023F41201A1C7B017A00799F900101E0C1
:1042A500FCA3E0FD90005DE4F0A304F0126B8B022B
:1042B5003F41C2167B017A00799F90009FE0FCA3E5
:0F42C500E0FDE490005DF0A3F0126B8B023F412F
:10725000000000000000000000000000000000002E
:107260003F80000000000000000000003F800000A0
:1072BE00D286D2857F057E00127341C2867F057EFF
:0772CE0000127341C285228A
:10736900C286D2857F057E00127341D2867F057E53
:04737900000273415A
:1072D500EF24FF9286D2857F057E00127341C28519
:0772E5007F057E00027341EA
:10702100C2857F057E00127341D2867F057E0012E4
:107031007341D2857F057E0012734130860CC28573
:107041007F057E001273417F0022C2857F057E008D
:067051001273417F0122D1
:056EF60090005AEFF0CE
:106EFB00E4A3F0C2857F057E0012734190005AE037
:106F0B00FF30E704D2868002C286EF25E090005A5C
:106F1B00F0D2857F057E0012734190005BE004F098
:0B6F2B00E0C3940840CDC28512702125
:016F36002238
:106E7200E4900106F0D286900105F0900106E0252B
:106E8200E0F0D2857F057E00127341900106E0FF9B
:106E9200A286E433FEEF4EF0C2857F057E001273B8
:106EA20041900105E004F0E0C3940840CE90010651
:026EB200E0FFFF
:016EB40022BB
:10720A00900058EFF0A3EDF01272BE7FD0126EF626
:10721A00900058E0FF126EF6900059E0FF126EF6E9
:03722A0002736983
:0570C000900107EFF054
:1070C5001272BE7FD0126EF6900107E0FF126EF6C7
:1070D5001272BE7FD1126EF6126E72900108EFF039
:0D70E5007F011272D5127369900108E0FF5F
:0170F200227B
:10722D00E4FD7F6B12720A7D077F1912720A7D06CB
:10723D007F1A12720A7D187F1B12720A7D017F1C44
:03724D0002720AC0
:05717800900109EFF099
:10717D001270C090010AEFF0900109E004FF127047
:10718D00C0AD0790010AE0FE7C00E42DFFEC3EFE51
:01719D0022CF
:06516100900000123B0665
:10516700782C7C007D017BFF7A7279507E007F105E
:10517700123778783C7C007D017BFF7A7279607EFC
:10518700007F101237789000D4E0F8A3E0F9A3E08D
:10519700FAA3E0FBC000C001C002C003900008E012
:1051A700F8A3E0F9A3E0FAA3E0FB900004E0FCA376
:1051B700E0FDA3E0FEA3E0FF1230D17B0A7AD779A6
:1051C70023783C1231C6D003D002D001D000123070
:1051D700D59000D4123B06900040E0F8A3E0F9A375
:1051E700E0FAA3E0FB7F6F7E127D837C3A1230D119
:1051F700900044E0F8A3E0F9A3E0FAA3E0FB123043
:10520700D190002C123B06900048E0FCA3E0FDA3E0
:10521700E0FEA3E0FF12336C900030123B069000D3
:1052270048E0FCA3E0FDA3E0FEA3E0FF12336C908F
:105237000034123B06900038123B123B449BA69069
:10524700003CE0F8A3E0F9A3E0FAA3E0FBC000C04C
:1052570001C002C0037F0A7ED77D237C3C90002CCF
:10526700E0F8A3E0F9A3E0FAA3E0FB1231C6D0030C
:10527700D002D001D0001230D590003C123B0690EE
:105287000040E0F8A3E0F9A3E0FAA3E0FBC000C008
:1052970001C002C0037F0A7ED77D237C3C9000308B
:1052A700E0F8A3E0F9A3E0FAA3E0FB1231C6D003CC
:1052B700D002D001D0001230D5900040123B0690AA
:1052C7000044E0F8A3E0F9A3E0FAA3E0FBC000C0C4
:1052D70001C002C0037F0A7ED77D237C3C90003447
:1052E700E0F8A3E0F9A3E0FAA3E0FB1231C6D0038C
:1052F700D002D001D0001230D5900044123B069066
:105307000048E0F8A3E0F9A3E0FAA3E0FBC000C07F
:1053170001C002C0037F0A7ED77D237C3C90003802
:10532700E0F8A3E0F9A3E0FAA3E0FB1231C6D0034B
:10533700D002D001D0001230D5900048123B069021
:1053470000D4E0F8A3E0F9A3E0FAA3E0FB900000A3
:10535700E0FCA3E0FDA3E0FEA3E0FF1230D1900044
:105367000C123B0690003CE0FCA3E0FDA3E0FEA38B
:10537700E0FF900010123B06900044E0FCA3E0FD24
:10538700A3E0FEA3E0FF900014123B06E4FFFEFD3E
:105397007C3F900010E0F8A3E0F9A3E0FAA3E0FB5C
:1053A7001230D5900018123B06900018E0F8A3E0E1
:1053B700F9A3E0FAA3E0FB900010E0FCA3E0FDA353
:1053C700E0FEA3E0FF1232CF90001C123B069000D4
:1053D70018E0F8A3E0F9A3E0FAA3E0FB900014E0DB
:1053E700FCA3E0FDA3E0FEA3E0FF1232CF90002074
:1053F700123B06900010E0FCA3E0FDA3E0FEA3E053
:10540700FF900024123B06900040E0FCA3E0FDA3C0
:10541700E0FEA3E0FF900028123B069000D4E0F8DE
:10542700A3E0F9A3E0FAA3E0FBC000C001C002C0FB
:105437000390000CE0FCA3E0FDA3E0FEA3E0FF90D7
:10544700001CE0F8A3E0F9A3E0FAA3E0FB1231C6E1
:10545700D003D002D001D0001230D59000D4123B37
:1054670006900008E0F8A3E0F9A3E0FAA3E0FBC088
:1054770000C001C002C003A3E0FCA3E0FDA3E0FE5F
:10548700A3E0FF900020E0F8A3E0F9A3E0FAA3E08F
:10549700FB1231C6D003D002D001D0001230D59014
:1054A7000008123B06900008E0F8A3E0F9A3E0FA31
:1054B700A3E0FB900004E0FCA3E0FDA3E0FEA3E073
:0A54C700FF1230D19000D8023B061E
:10619D007F3B127178AC06AD07EC123382E4FBFA4B
:1061AD00798F78431232CF9000F4123B067F3F1265
:1061BD007178AC06AD07EC123382E4FBFA798F7877
:1061CD00431232CFA804A905AA06AB071231C6C0E7
:1061DD0004C005C006C0079000F4E0FCA3E0FDA3D9
:1061ED00E0FEA3E0FFA804A905AA06FB1231C6D064
:1061FD0003D002D001D0001230D512678CAB07AAA4
