:0F7A6C00759D1FE4F5BD75BC807F02FE02795D3C
:1079FA00EF44C8F5BC00000000E5BC30E4FB53BC12
:047A0A00EFAFBD22FB
:067AB50000007F03DFFE6C
:017ABB0022A8
:107A0E00AD07AC06ED1DAE0470011C4E6005127A7A
:047A1E00B580F1221C
:10795D007DF57C0CED1D70011C144C70F7EF1F7044
:06796D00011E144E70EA39
:0179730022F1
:10000E0001000100010001000100010001000100DA
:10001E0001000100010001000100010001000100CA
:10002E0001000100010001000100010001000100BA
:10003E0001000100010001000100010001000100AA
:1002BE00010001000100010001000000000001002A
:1002CE000100010001000100010001000100010018
:1002DE000100010001000000010001000100010009
:1002EE0001000100010001000100010001000100F8
:1002FE0001000100010001000100010001000100E8
:10030E0001000100010001000100010001000100D7
:10031E0001000100010001000100010001000100C7
:10032E0001000100010001000100010001000100B7
:10033E0001000100010001000100010001000100A7
:10034E000100010001000100010001000100010097
:10035E000100010001000100210061008100810007
:10036E006100410021002100210021000100010057
:10037E000100010001000100010001000100010067
:10038E000100010001000100010001000100010057
:10039E000100010001000100010001000100010047
:1003AE000100010001000100010001000100010037
:1003BE000100010001000100010001000100010027
:1003CE000100010001000100010001000100010017
:1003DE000100010001000100010001000100010007
:1003EE0001000100010001000100010001000100F7
:1003FE00010041002211042264322432E4298319BF
:10040E0022014101410161014101E200810022000E
:10041E0001000100010001000100010001000100C6
:10042E0001000100010001000100010001000100B6
:10043E0001000100010001000100010001000100A6
:10044E000100010001000100010001000100010096
:10045E000100010001000100010001000100010086
:10046E000100010001000100010001000100010076
:10047E000100010001000100010001000100010066
:10048E000100010001000100010000004100831184
:10049E000643F7E7F8FFF9FFDAFFFCEF060BF47EF1
:1004AE00F36FEE678604C50304020201210001000A
:1004BE000100010001000100010001000100010026
:1004CE000100010001000100010001000100010016
:1004DE000100010001000100010001000100010006
:1004EE0001000100010001000100010001000100F6
:1004FE0001000100010001000100010001000100E6
:10050E0001000100010001000100010001000100D5
:10051E0001000100010001000100010001000100C5
:10052E00010001000100410023190533F8F7FBFF1C
:10053E00FBFFF9FFF8F735B78B3D0714D2872C6F09
:10054E00EA87C94F6A4F2D25A10001000100010065
:10055E000100010001000100010001000100010085
:10056E000100010001000100010001000100010075
:10057E000100010001000100010001000100010065
:10058E000100010001000100010001000100010055
:10059E000100010001000100010001000100010045
:1005AE000100010001000100010001000100010035
:1005BE000100010001000100010001000100010025
:1005CE002100020933AE16CFFDFFFDFFFDFFFDFF3B
:1005DE00129FB29E061CED5D441CE413E30B4824EF
:1005EE0003034D2C41018200620082006100210054
:1005FE0001000100010001000100010001000100E5
:10060E0001000100010001000100010001000100D4
:10061E0001000100010001000100010001000100C4
:10062E0001000100010001000100010001000100B4
:10063E0001000100010001000100010001000100A4
:10064E000100010001000100010001000100010094
:10065E000100010001000100010001006200E31130
:10066E00F8E7FBFFFCFFFEFFFEFFF9F7EB458C5EA4
:10067E00F48746144F67319FAA14B0760503440AD7
:10068E0021020201C401567F6201E2008100410095
:10069E000100010001000100010001000100010044
:1006AE000100010001000100010001000100010034
:1006BE000100010001000100010001000100010024
:1006CE000100010001000100010001000100010014
:1006DE000100010001000100010001000100010004
:1006EE0001000100010001000100010001000100F4
:1006FE0001000000010081006311852A2B55EF8D4A
:10070E00FEFFFAEF94B7DBFF2835F2975257640CD1
:10071E006704070C05034503AF3EA60367132302C8
:10072E00C2026A0446038B1C4102210181000100B2
:10073E0001000100010001000100010001000100A3
:10074E000100010001000100010001000100010093
:10075E000100010001000100010001000100010083
:10076E000100010001000100010001000100010073
:10077E000100010001000100010001000100010063
:10078E000100010001000100010001000100010053
:10079E00C100031AF195F9EF4C65FBFFFAFFED76F8
:1007AE008A5D0A4DC72C480DB16F4D2E470C0815AA
:1007BE006C1469030503CA1C718F66034A0C650C21
:1007CE006C4FCC9F471F2705E301E200410001005B
:1007DE000100010001000100010001000100010003
:1007EE0001000100010001000100010001000100F3
:1007FE0001000100010001000100010001000100E3
:10080E0001000100010001000100010001000100D2
:10081E0001000100010001000100010001000100C2
:10082E00010001000100010001006100E301139FBE
:10083E0096C7FBDFFCF7FBF7F7E78E66D6E7F4B754
:10084E00106FA724B5AF6A15280C0C36A71BA90B81
:10085E00C80AA60A0603ED55CB47F3E7EA5FCB2E8F
:10086E00F09FEC47EC05A602630181000100010038
:10087E000100010001000100010001000100010062
:10088E000100010001000100010001000100010052
:10089E000100010001000100010001000100010042
:1008AE000100010001000100010001000100010032
:1008BE0001000100210022002100000001000100C2
:1008CE00010001002100E100A532F9D7FFFFFFFF73
:1008DE00FDE7FDEF2C65E83C0935E934A93CC83449
:1008EE00ED55906EF68FCC3ED4CF8834241427036A
:1008FE002603470CF1A74A57F0BFCFAFCB878947E6
:10090E00E7276B1729058401620001000100010031
:10091E0001000100010001000100010001000100C1
:10092E0001000100010001000100010001000100B1
:10093E0001000100010001000100010001000100A1
:10094E000100010001000100010001000100210071
:10095E0024112419A2002100010001000100010050
:10096E006100C211FAEFDAE77BD7FFFFFEF793BF04
:10097E008C75F9D7AF768E66F5BF739FA60B2503E0
:10098E002403A402C40A090CA403904E7267E90C56
:10099E00EA6FCD4FA757CFB7F9FFF0CF891FC957D1
:1009AE00CA0F6C1521014100010001000100010078
:1009BE000100010001000100010001000100010021
:1009CE000100010001000100010001000100010011
:1009DE000100010001000100010001000100010001
:1009EE00010001000100010001002100A629FFFF06
:1009FE00C621610021000100000081006201232355
:100A0E00CB57F7D7FFFFFFFFFFFFFCE7FBFFFAFF18
:100A1E00F8F7F6E7461D0E3F480DC7030803E40935
:100A2E00860AC401E401050327038A46F3D7AC679F
:100A3E00CE974A57F1AFF8F7C78FC82F0B0E480461
:100A4E00C60181000100010001000100010001004A
:100A5E000100010001000100010001000100010080
:100A6E000100010001000100010001000100010070
:100A7E000100010001000100010001000100010060
:100A8E0001000100010042006832FFFFFFFF8511E7
:100A9E0082008200E200A201291DEF8FF8D7FFFF2E
:100AAE00FFFFFFFFFFFFFAEFF8F7F4EFF3DFF1CFF1
:100ABE00EEBFEEBFF0C7EF9F862DE802E301840183
:100ACE0028122309E4015066AD57CD87F5E7F9F7F3
:100ADE004B4FF6EFFCFFF3AFC604C904A60242016A
:100AEE0042000100010001000100010001000100AF
:100AFE0001000100010001000100010001000100E0
:100B0E0001000100010001000100010001000100CF
:100B1E00010001000100010001000100010021009F
:100B2E0041006200E619FFFFFFFF6B436722C942D7
:100B3E003CDFDDE775A7D9DFBBE7FFFFFFFFFFFF58
:100B4E00FEEFF4CFF1CFD0D78D5FC413A80BE80B17
:100B5E000604A603AA26AB072A0F46024301A200EB
:100B6E00C20081016403F3B7EFC7EE870C2FF7F7CE
:100B7E00A94FC9272904A5024302A3018200000040
:100B8E00010001000100010001000100010001004F
:100B9E00010001000100010001000100010001003F
:100BAE00010001000100010001000100010001002F
:100BBE00010001000100010001004200F39424092C
:100BCE000612FFF7FFFFFFFFFFFFFFFFFFFFDFFF35
:100BDE00FEFFFEF7FFFFFFFFFFFFFFFFB8C7F1C7E6
:100BEE00F1BFAE6F2213A1014201220102012101C8
:100BFE008201A502C3024703AD0DA200610082006F
:100C0E004201A50ACF77F3E78737EFC7AC0EE904A9
:100C1E00290CC60343020402610001000100010019
:100C2E0001000100010001000100010001000100AE
:100C3E00010001000100010001000100010001009E
:100C4E00010001000100010001000100010001008E
:100C5E000100010001008200DFF7EA4AF69DBEF7AF
:100C6E00FFFFFFFFFFFFFFF75395892BB046DFFF16
:100C7E00FEFFFFFFFEF7DFFFFFF7B8AF861BE209AF
:100C8E00E100410021002100010021004100A100EE
:100C9E00E1000301A20042008200820082000301F3
:100CAE00E2018503E81E6B06D04F0D05290368058A
:100CBE00C602E30042002200010001000100010013
:100CCE00010001000100010001000100010001000E
:100CDE0001000100010001000100010001000100FE
:100CEE0001000100010001000100010001000100EE
:100CFE00010021008621DFFFDFFFFFF7FFFFFFFF6F
:100D0E00FFFF6E5C451A282BDFFFFEFFD8AFCE37F4
:100D1E008E2EB14DFFFFFFFF262281000100000045
:100D2E000100000000000100000001000100210090
:100D3E00210002084200630063006200820041014C
:100D4E00C001220264020602C4012401C300820013
:100D5E0062004200010001000100010001000100DB
:100D6E00010001000100010001000100010001006D
:100D7E00010001000100010001000100010001005D
:100D8E00010001000100010001000100000021002E
:100D9E00E3084C5BBEF7FFFFFFFF8F6CDEEFFFFF3C
:100DAE008B337DE7FFFFB3753586D0344813860A43
:100DBE00A722FFF7651920000000010001000100C5
:100DCE00010001000100010001000100010001000D
:100DDE000100220042004A13410021004100A200FE
:100DEE00E4002609C3006200620082008200430014
:100DFE0001000100010001000100010001000100DD
:100E0E0001000100010001000100010001000100CC
:100E1E0001000100010001000100010001000100BC
:100E2E000100010001000100010000000100C308E3
:100E3E00E6212A3B0D54EC4B4E5CFFFFBEFFFFF745
:100E4E00FFFFFFFFFFFFDFFFFFFF461AC300820019
:100E5E00210001000100010001000100010001005C
:100E6E00010001000100010001000100010001006C
:100E7E0042004200220022000100220082004301B3
:100E8E008300620082000301230162000100010061
:100E9E00010001000100010001000100010001003C
:100EAE00010001000100010001000100010001002C
:100EBE00010001000100010001000100010001001C
:100ECE000100010001000100010021006100061A6D
:100EDE00FFFFBFF7FFFFFFFFFFFFFFFFFFFFFFFF5C
:100EEE00DFFFFFFFFFFFFFF764112100010001008C
:100EFE0001000100010001000100010001000100DC
:100F0E0001000100010001000100010001000100CB
:100F1E006501A30022002100430803010301C30061
:100F2E00E4006401080AA30042002200210001002F
:100F3E00010001000100010001000100010001009B
:100F4E00010001000100010001000100010001008B
:100F5E00010001000100010001000100010001007B
:100F6E0001000100010001004100E621FFFFFFFF2B
:100F7E00FFFFFFFFBEF7FEE711756D4C2B34FFF739
:100F8E00FFFFFFFFC621210001000100010001004B
:100F9E00010001000100010001000100010001003B
:100FAE0001000100010001000100010021006200AA
:100FBE00C40842004100A3004B35E408E400A4003D
:100FCE00A300E300C3008200220001000100010023
:100FDE0001000100010001000100010001000100FB
:100FEE0001000100010001000100000002000200EA
:100FFE0002002200010001000100000000000100BB
:10100E00010001002100A619FFFFDFFFB8AE19AFE6
:10101E00FFF7FFFFFFFFDFFF1175FFFFFFFFFFF77A
:10102E00240921000100010001000100010001005E
:10103E00010001000100010001000100010001009A
:10104E00010001000100010001004200CA1A8300E4
:10105E0042006200C300E400E400A400A300C30049
:10106E00AE4C0301A200420001000100010001008C
:10107E00010001000100010001000100010001005A
:10108E0001000100010021006300630063000912EA
:10109E002200020001000100010001008721010071
:1010AE0001000411DEEFFFFFFFFFFFFFFFFFDFFF79
:1010BE00DEF7FEEFFFFFFFFFFFFF6C53A2080100FC
:1010CE00010001000100010001000100010001000A
:1010DE0001000100010001000100010001000100FA
:1010EE0001000100010063004701C9022301A200B3
:1010FE006200C300060A0812C300B36543018409E7
:10110E00281BE10061000100010001000100010047
:10111E0001000100010001000100010001000100B9
:10112E006100E20025010401E5088400630022004D
:10113E0002000100010023002100010001008200D5
:10114E006832FFFFFFFFFFF7927D738DFFEFFFFF0A
:10115E00FFFFFFFFFFFFC619410001000100010064
:10116E000100010001000100010001000100010069
:10117E000100010001000100010001000100010059
:10118E000100A40090024F05C90482018200830071
:10119E000401450104016501C50265028702450B84
:1011AE0022094000010001000100010001000100C0
:1011BE000100010001000100010041004101F18F19
:1011CE00AC0CE509AB1BC4004601630043002200D2
:1011DE00410086112100010000006200A511FFFFF1
:1011EE00FFFFDFFFFFFFFFFFFFFFFFFFFFFFFFF729
:1011FE004B434409410001000100010001000100C0
:10120E0001000100010001000100010001000100C8
:10121E000100010001000100010001000100A40015
:10122E00EF02AE052D072403E200620003012A132C
:10123E000409A80A2603F397271DED9F4303C10057
:10124E000100010001000100010001000100010088
:10125E0001000100010081000202EC87840BCA0B21
:10126E00C502E400C400A400C30082008001A401F2
:10127E00420001002100A2082612FFF7FFFFFFFF28
:10128E00FFFFFEF7FFF7FFFFFFFF16A6D59D339575
:10129E00640941000100010001000100010001008C
:1012AE000100010001000100010001000100010028
:1012BE00010001000100010001006300A801720598
:1012CE00CD060C1E0301820002010302050144013A
:1012DE00A502871664046E6F0A2E2101010001001B
:1012EE0001000100010001000100010001000100E8
:1012FE000100C100C402ED5F2704D197E60AC401C4
:10130E0065012A0B05090301AC1523016200620079
:10131E002409882AFFFFFFEF1BCFFFFFFFFFFFFF10
:10132E00FFFFFFFFFFFFFFFFFFFFFFFFFBD6E308FF
:10133E000100010001000100010001000100010097
:10134E000100010001000100010001000100010087
:10135E0001000100010022000501ED032B07A80288
:10136E002301A200E400E40083014509E90B8B6729
:10137E00271F280DAC87410101000100010001006B
:10138E000100010001000100010001002100E20046
:10139E006402C70228250C5EAE4D680C8B350B1C03
:1013AE00A6018401A8036301E300E7217DE7FFFFA7
:1013BE00FFFFFFFFFFFFFFFFFFFFFFFFFFFFFFFF2F
:1013CE00FFFFFFFFDFFFDFFFDFFF25190100010039
:1013DE0001000100010001000100010001000100F7
:1013EE0001000100010001000100010001000100E7
:1013FE00010001006200E200C401A301A701030184
:10140E00E30085012402A50105024A4E2A1EEC3F87
:10141E00A81CE10001000100010001000100010013
:10142E000100010001000100010823012403030251
:10143E00450265032503870B8613CA240402EE14A6
:10144E00280368126E23DEFFFFFFFFFFFFFFFFFF83
:10145E00FFFFFFFFFFF70A3BA82A6B43FFFFFFFFCB
:10146E00FFFF0C44261AE3080100010001000100F1
:10147E000100010001000100010001000100010056
:10148E000100010001000100010001000100010046
:10149E0001004100C2004702A90725026501A30110
:1014AE000303450184012302F25F660DA101810051
:1014BE000100010001000100010001000100010016
:1014CE000100010041008B24ED6FE409E5010702E4
:1014DE002402A80C09158A24A3022915A604A50224
:1014EE00E511DFF7FFFFFFFFFFFFFFFFFFFFDEF757
:1014FE006A338409E3006409F7B5FFFFFFFFFFF7C6
:10150E004822C30862000100010001000100010031
:10151E0001000100010001000100010001000100B5
:10152E0001000100010001000100010001000100A5
:10153E00C3008E022D064C0ECA0265018501E5011F
:10154E000301E401880C4102020141000100010087
:10155E000100010001000100010001000100010075
:10156E00620063020302E40985036401E401AF56DD
:10157E002A0CE914C5038E47EC5FA9038401272AC0
:10158E00F6AD98BEFFFFFFFFFFFFDFFFFFFF0A4331
:10159E008511E3004722FFF7FFFFDFFFFFF7A93AB0
:1015AE008509C20042002100010001000100010076
:1015BE000100010001000100010001000100010015
:1015CE0001000100010001000100220025011104AB
:1015DE002E0F4B078A03AE2C6401041123018401E4
:1015EE00E201620182002100010001000100010000
:1015FE000100010001000100010001004108640129
:10160E004C1CC5018409840104026502C82CEF2D0F
:10161E00060CF3C7EFB78C166301C2002612FFF754
:10162E00FFFFFFFFF174FFF7FFFFFFFF1BDF8511C9
:10163E0003096C5BFFFFFFFFFFFFFFFFFFFF483259
:10164E00A511C300620001000100010001000100AC
:10165E000100010001000100010001000100010074
:10166E0001000100010022002501AF05EA078C07E9
:10167E00F0030602470A090B0402C3017067C30197
:10168E008200C721010001000100010001000100DC
:10169E000100010001000100420823012402A409F7
:1016AE00070B04028A34ED3DA70BEA0B680CF0BF62
:1016BE00EC97C40BA2010301CD63FFFFFFFFFFF701
:1016CE00261A461AFFF7FFFFFFFFDBCE2409261A64
:1016DE00FEF7FFFFFFFFFFFFFFFFFFFFFFF7507C4F
:1016EE0085118200210001000100010001000100AE
:1016FE0001000100010001000100010001000100D4
:10170E0001000100A300AB020D054D072B04E502FD
:10171E00D25E4713E602C80B6D25A401820021009C
:10172E0001000100010001000100010001000100A3
:10173E00010001006310C501830164014702C70265
:10174E000603CF4EF6A78A1C0C1DEC6FEA7FCC3732
:10175E00230A6732DFFFFFFFFFF78B3BC509A509A1
:10176E0099BEFFFFFFFFD5A5A722FACE3AC7FFF716
:10177E00FFFFFFFFFFFFFFFFFFFFFFFF9EEF893A17
:10178E00C300210001000100010001000100010061
:10179E000100010001000100010001000000010034
:1017AE00220004012802AE03C802C603C803F06F6C
:1017BE00F9DF0713B46FC401C1004100010001003D
:1017CE000100010001000100010001000100010003
:1017DE0041008301A3018401C60146028903CE564E
:1017EE00F8C74B2DEE66EFB7EB7706172403FFFF16
:1017FE00FFFFDFFFD9BEFFFF7DDF461A0E64FFFF3E
:10180E00FFFFFFF76F6CFFFFFFFFFFF7BEE7FFFF66
:10181E00FFFFFFFFFFFFFFFFFFFFFFFF48326200EA
:10182E0001000100010001000100210042008200C0
:10183E00A200A20882004200210001000100630004
:10184E004A0AD0046602C402C4028613AF6E68133D
:10185E00A5126301A2002100010001000100010098
:10186E000100010001000100010001002200E3005F
:10187E008C14C4010502660A2B0C88042C2629152B
:10188E00850DA75FC83FCB5FD8B6FFFFFFFF5CD7C4
:10189E00FFFFFFFFFFFFAC53BDEFFFFFFFFF538DB9
:1018AE00DFFFDFFFFFF7DFFFDFFF317DDFF7FFFF3A
:1018BE00FFFFFFFFFFFFFFFFFFF765112100010094
:1018CE000100210082000309E619A9329074DACED4
:1018DE00A93A0722230981002100A300A709A70224
:1018EE002502E301440A4F87F4AEC30164010401EB
:1018FE004200010001000100010001000100010091
:10190E00010001000100010042000201C301240296
:10191E0025028302A503ED35EF5687046835CA7F8D
:10192E00EA478F4DFFFFDFFFFEEF527DFFFFFFFF08
:10193E00D59DFFFF7CDFDFFFFFFFD0745BD7FFFF7E
:10194E006D4CFEEFFFFFFFF7082B0E6CFFFFFFFF46
:10195E00FFFFFFFFFFFF2832420022006200030953
:10196E00A93AFFF7DFFFFFFFFFFFFFFFFFFFFFFFBC
:10197E00FFFFA93A85116401100EAA07640326031E
:10198E004402E60A630264010301820021000100A1
:10199E000100010001000100010001000100010031
:1019AE0001000100A2002301AA1D4402850AA71B03
:1019BE00E50B6835F9F78504A60C5ABFB8B7DFFFFB
:1019CE00FEF7139D461A95A5FFFFFFFFFFF7FFFFDA
:1019DE00FFFFFFFFFFFF1BCF6B43FFFFF17CDEF727
:1019EE00DFFFFFFF261A03094409E619A93A3495C9
:1019FE007EE7DFF78200E310C61959C6FFFFFFFF2F
:101A0E00FFFFFFFFFFFFFFFFDFFFFFFFFFFFFFFFF8
:101A1E00BEF7C812700C8F06C602E4096402E30218
:101A2E004813A90B8201651102000100010001009B
:101A3E000100010001000100010001000100010090
:101A4E008100A101CB2BA302D697650B4E7785148F
:101A5E008F56E60BE503EB1CFEE7107D47220301D4
:101A6E00E3082B4BFFFFFFFFDEEFB174FFFFFFFF1D
:101A7E00FFFFFAC60612DFF7FFFFE92ADFFFFFFFBF
:101A8E0065194100210062008200C300C308820074
:101A9E0018BE7EF7FFFFFFFFFFFFFFFFFFFFFFFFF9
:101AAE00FFFFB17CA932472A8B43FFFFFFFFDFF711
:101ABE00921DAD0324026E2CC60AC80CF2D7AE6F6F
:101ACE00B17E22016300010001000100010001004E
:101ADE000100010001000100010001004200A2000E
:101AEE00E201A934319F114FC724FAFF0C56681436
:101AFE00AD3567042C0FED0D23094100620048320D
:101B0E00FFFFFFFFA82A6722DEF7FFFFDFFF0B4371
:101B1E00E308E3080409C308A5196519820021002A
:101B2E00010001000100010001000100A308C62907
:101B3E00DFFFFFFFFFFFFFFFFFFFFFF7682A030135
:101B4E00A200A200261AFFFFFFFFFFFF3047CD0FB6
:101B5E0084012301460AE40BEFBFF0C771A72201EF
:101B6E00410001000100010001000100010001001F
:101B7E0001000100010001000100A100E502440383
:101B8E002825A61CF4874F4EC60C8604AE460704C5
:101B9E00C90E0613040261000100C308349D58BE2D
:101BAE0024090309CE63FFFFDEFFC6214200210098
:101BBE00210021002200420001000100010001006D
:101BCE0001000100010001002200C200C6197DE7DC
:101BDE00FFFFDFFF1BCFE611C200410021006100B5
:101BEE00E619FFFFFFFFFFFF9BC745032201E3003E
:101BFE0066094402CB4CA40A4302E3002100010013
:101C0E0001000100010001000100010001000100BE
:101C1E00010001000100A1004713E50B539F070DC2
:101C2E00F4AF6945681464034804290CE927701F52
:101C3E00E5018200010021006200620021004100E6
:101C4E0024114C5B17B6820821000100010001002F
:101C5E00010001000100010001000100010001006E
:101C6E0001000100210083000301061AA82AC82AD8
:101C7E00C722E5196409A20041006100E619FFFFC1
:101C8E00FFFFDFFF179E22018200E2004D35850126
:101C9E00230143012201E2002100010001000100A5
:101CAE00010001000100010001000100010001001E
:101CBE0020000201E503D2976F7FF7B7D48FEFAF05
:101CCE00E70385030704A6040705A5034602E10002
:101CDE00000001000100010001000100210082004E
:101CEE008208210001000100010001000100010035
:101CFE000100010001000100010001004200A200EC
:101D0E000309C619A832738D5DE7FFFFBEF7DFFF2B
:101D1E00DEFF893A031182000622FFFFFFFFFFF765
:101D2E0006126200410042016302EA1A0301030136
:101D3E007355820001000100010001000100010045
:101D4E000100010001000100010001000100E1009D
:101D5E00461CEC97F3AF690C0C1D860B0704E603CB
:101D6E00736726044404EA370404220121000100AB
:101D7E00010001000100010001000100010001004D
:101D8E00010001000100010001000100010001003D
:101D9E00010001000100A3088519C92ADACEBEFF91
:101DAE00DFFFFFFFFFFFFFFFFFFFFFFFFFFFFFFF55
:101DBE003CDFE208271AFFFFFFFFFFF7640941002F
:101DCE006200260205020402A401EE3D0202820018
:101DDE0001000100010001000100010001000100ED
:101DEE0001000100010001000100C1002703882F3E
:101DFE00AA46860D0504C613505F8E46ED3D870438
:101E0E00C504E84FEC574302A10021000100010078
:101E1E0001000100010001000100010001000100AC
:101E2E00010001000100010001000100010001009C
:101E3E000100C308DFFFFFFFFFFFFFFFFFFFFFFFF4
:101E4E00FFFFFFFFFFFFFFFFFFFFFFFFBEEF0309D7
:101E5E00261AFFFFFFFFFFFF6411620003016502F8
:101E6E00B03DE301280C0F4F6401A20022000100D7
:101E7E00010001000100010001000100010001004C
:101E8E000100010001004100A201CF772525AD67B9
:101E9E00440CD09FF8DFF7E7F5CFC915EE3EB04FF3
:101EAE00693F0B1E410120000100010001000100ED
:101EBE00010001000100010001000100010001000C
:101ECE00010001000100010001000100010082007B
:101EDE00559DFFFFFFFFFFFFFFFFFFFFDFFFFFFF30
:101EEE001BD70A3B672AA511C30881000622FFFFF4
:101EFE00FFFFFFFFC611A3006301E613E602A30175
:101F0E00A3018E2D4401CB2A6200010001000100C5
:101F1E0001000100010001000100010001000100AB
:101F2E0001000100E100C302EF9FF3BFF3B7E61417
:101F3E000C2FEE5FF59FF687E90C0E06A91EEA3F01
:101F4E008302A10000000100010001000100010058
:101F5E00010001000100010001000100010001006B
:101F6E0001000100010001000100210024090A4BBB
:101F7E00FFF7DFFFFFFFFFF74A43A722E511230913
:101F8E00C200620021006100271AFFFFFFFFFFFF62
:101F9E00071AE300A4016602A202E4010402E60AA3
:101FAE000401E408410001000100010001000100EC
:101FBE00010001000100010001000100010001000B
:101FCE004100E401A724C5142F6FE5146B1ED39FA7
:101FDE000B36670CCC450D1ECD5FA70E0A2E610188
:101FEE00410001000100010001000100010001009B
:101FFE0001000100010001000100010001000100CB
:10200E00010001000100010082000622DEEF6B4399
:10201E004A336A3BAC533BCFEE63C832A511C308BB
:10202E0061008200A812FFF7FFFFFFFF8722630106
:10203E00E502AE3D091D8402A602EB2B0301A501AC
:10204E006200010001000100010001000100010019
:10205E000100010001000100010001000000C100AB
:10206E004302AA5EA92D0605CB16C60486046C256E
:10207E004804EC5748058C27E6044002A1000100F5
:10208E00010001000100010001000100010001003A
:10209E00010001000100010001000100010001002A
:1020AE0001000100C200DAC6FFFFCC4B5CDFFFFF70
:1020BE00FFFFFFFFFFFFDFFFFFFF89326511030107
:1020CE00C81AFFFFFFFFFFFF4A23670A65022503B9
:1020DE002914491CD26FC401E609620021000100D7
:1020EE0001000100010001000100010001000100DA
:1020FE00010001000100010001004100A2010405E0
:10210E004C3EEE8765030704C614280DB3872A25B7
:10211E008A1529050404CA0F220941000100010095
:10212E000100010001000100010001000100010099
:10213E000100010001000100010001000100010089
:10214E002309DFFFFFFFFFFFFFFFFFFFFFFFFFFF83
:10215E00FFFFFFFFFFFFFFFFFFFF66121045FFFFB0
:10216E00FFFFFFFF0C348503240469258614850CBC
:10217E004503E301891B410001000100010001003C
:10218E000100010001000100010001000100010039
:10219E000100010001000100020104039077050C0B
:1021AE00040304038736670DD06F4A46E504C8154D
:1021BE0089042503E301C200610001000100010052
:1021CE0001000100010001000100010001000100F9
:1021DE00010001000100010001002100A519FFFF0F
:1021EE00FFFFFFFFDFFFDFFF7CCF7165FFFFFFFF0C
:1021FE00FFFFFFFFFFFF5ABFAA2BFFFFFFFFFFFFEF
:10220E00B7B76B2FEDAFEDAFF2D7F4EF2714C401D4
:10221E00A100010001000100010001000100010008
:10222E000100010001000100010001000100010098
:10223E0001000100A1008402F09FE503C302230206
:10224E002F876F9F4A2E2515EA25AF4FCA2EEE8790
:10225E000403C90B8301810021000100010001006C
:10226E000100010001000100010001000100010058
:10227E000100010001002100A519FFFFFFFF1596C7
:10228E00CB430C3498B6DFFFFFFFFFFFFFFFFFFFCE
:10229E00DCF7F0358923FFFFFFFFFFFFB7BFC8371D
:1022AE00ED7FD2CFFBFFF8F78D4EA2018200010029
:1022BE000100010001000100010001000100010008
:1022CE0001000100010001000100010001000100F8
:1022DE0041006209C5036A4563020402840A060CC2
:1022EE0027258B3D4B46F18F692E8D4E8E5F8403D5
:1022FE00EA2F0402E10021000100010001000100AB
:10230E0001000100010001000100010001000100B7
:10231E00010001002411DFF7FFFFFEF7A92BDDE717
:10232E00FFFFFFFFFFFFFFFFFFFFB9AF49152503BB
:10233E00481BFFF7FFFFFFFFFADFCEA7EDB7F8FF51
:10234E00F7FFD4DF8F664209210001000100010072
:10235E000100010001000100010001000100010067
:10236E000100010001000100010001000100C10097
:10237E00660BCB354203040A840A0B04EB15D7DF38
:10238E00F7E710778815105FF0672D3F4F1FAD37B9
:10239E00C402200181004100010001000100010082
:1023AE000000010001000100010001000100010018
:1023BE00C20017AEFFFFFFFFFFFFFFFFFFFFFFFF94
:1023CE00FFFFFFF7558FEB6F89054F5EEB33FFFF76
:1023DE00FFFFFFFFF7AEF2AF4E57EFB7AC56042438
:1023EE00620A8100010001000100010001000100EC
:1023FE0001000100010001000100010001000100C7
:10240E000100010001000100010041086201030406
:10241E00F1CF43132C4ED18F6C3E6C1DF397681584
:10242E00C5144704450304032603A502A6024C5611
:10243E0020024101A1004100010001000000010045
:10244E0001000100010001000100000061000722EF
:10245E00FFFFFFFFFFFFFFFFFFFFFFFFFFFFFFF786
:10246E00BFFFEC67AA06450C7696FFFFFFFFFFFF46
:10247E00BDE7C724440B4403F057C101C20021003D
:10248E000100010001000100010001000100010036
:10249E000100010001000100010001000100010026
:1024AE00010001000100010021016E76EFB7F087F7
:1024BE00630BF7D7105F8F268E47471D0A1E460CFB
:1024CE006503691C881CC402C603AC374605AD4EB5
:1024DE0021026101A1004100010001000100010083
:1024EE00000001000100210041008411FFFFFFFFE9
:1024FE00FFFFFFFFDFFFFEE7B03F8D37EB37EE8FBD
:10250E00A30C307FFFF7FFFFFFFFFFFF1AC7C70ABD
:10251E00A40162014101A20021000100010001009D
:10252E000100010001000100010001000100010095
:10253E000100010001000100010001000100010085
:10254E0001000100A100A302F3DFC50B4D3EE6031F
:10255E00B29F8835F5CFC414B49FC61C8E5E8B1DFA
:10256E0085048603A502E613A903ED770726EB770C
:10257E00E6120201A200C100C000A100820081008B
:10258E00C200220142018201C612FEF7DFF78D3C26
:10259E00E91BA60BE70DCC4F2A3F070567044C3D00
:1025AE00FFFFFFFFFFFFFFFFB8AE45024401A20091
:1025BE0042000100000001000100010001000100C5
:1025CE0001000100010001000100010001000100F5
:1025DE0001000100010001000100010001000100E5
:1025EE002100020102022F4ED06F051C0514D2AF3E
:1025FE000B1D3167682DAA2DE714F497660C2A146B
:10260E00F166260364036B2D491D28062603050279
:10261E002803470C091DA704620183012A154A1FCE
:10262E00E9034C17E4026B175037A712E40144027A
:10263E00290C2C4624048804E91CDEEFFFFFFFFF63
:10264E00FFFFFFFFCB336401620021000100010098
:10265E000100010001000100010001000100010064
:10266E000100010001000100010001000100010054
:10267E000100010001000100010001000100410004
:10268E00A10062012502872D44144A450503061454
:10269E00CB1D430C2715EE57E5030804670BC81333
:1026AE00AC452504A5034503C60A6C0CC70A490CA4
:1026BE00C3018301C602490C2303A3028D2DB05F13
:1026CE00A302A202620225024A1B67026503C82406
:1026DE0071674E47FCEFFFFFFFFFFFFFFFFFBFF7E6
:1026EE000713430142000100010001000100010037
:1026FE0001000100010001000100010001000100C4
:10270E0001000100010001000100010001000100B3
:10271E000100010001000100010001000100610043
:10272E002101A202F3A72F4F8302A302A4038F4E0F
:10273E0087040C2FE70C0B35F7CFF7C7F6B7A904B4
:10274E00C7039667A603651305034702A401840118
:10275E00E4014502C402A3026302C4022403F27F11
:10276E0006038302FDDFD5772F6FE81C705EFEF740
:10277E00FFFFFFFFFFFFFFFFFFFF2A3CA4096200E0
:10278E002100010001000100010001000100010013
:10279E000100010001000100010001000100010023
:1027AE000100010001000100010001000100010013
:1027BE000100010001000100010001006100620141
:1027CE006F4F6926715EC5022A15F7D70614EB1CEA
:1027DE00070CF5BFF5DF71872D5EF7C74C35280C5A
:1027EE004B2D873D6966260B6402A60B8E3D0603B4
:1027FE000914EB34D29F4403C713AD2ED17FD0679B
:10280E00491CDFF7FDF7DDF7FFFFFFFFFFFFFFFFBF
:10281E00FFFFFFFF8B44850B02012100000001002A
:10282E000100010001000100010001000100010092
:10283E000100010001000100010001000100010082
:10284E000100010001000100010001000100010072
:10285E00010001000100010001008100620163011D
:10286E00A201D14F0503450B8703CA44A70B4E5750
:10287E008E66C60CCA25B18F870CAB3DF6DFF2E72C
:10288E00CF9F661C8513F29F6E4E660327148E9F94
:10289E00261C4825EE5D8E9F052D880DF4AF8C25E8
:1028AE00DFFFFFFFFFFFFFFFFFFFDFFF149E304F35
:1028BE004604C402A2000100000001000100010054
:1028CE0001000100010001000100010001000100F2
:1028DE0001000100010001000100010001000100E2
:1028EE0001000100010001000100010001000100D2
:1028FE00010001000100000041006100A100A301E0
:10290E00D48FA502CF4D325F727EC60B0604725F66
:10291E00CB47E4032E3ECB35AD87F3CFEA564E8F31
:10292E00A524861C0504E814861CF2A70615C50C02
:10293E00F4C7F5D7F19FA50CC60CB16F6A1D2E55C5
:10294E00FDD7DDDF96A62A3DF5C7C937CF4704026E
:10295E0081000100010001000100010001000100E1
:10296E000100010001000100010001000100010051
:10297E000100010001000100010001000100010041
:10298E000100010001000100010001000100010031
:10299E000100010001000100210082004201092D09
:1029AE000B35840A26032A0C7277C714E83DE6031A
:1029BE008803C50B107F3387F3BF6D3ECD26280DE0
:1029CE002604F4A7F1A7B1672B660B46E41407158E
:1029DE00CD7F26150615E94D52876D5EF297AA3DFD
:1029EE00929FF6F7D0BFF197280302012100010054
:1029FE0001000100010001000100010001000100C1
:102A0E0001000100010001000100010001000100B0
:102A1E0001000100010001000100010001000100A0
:102A2E000100010001000100010001000100010090
:102A3E00010001000000210082000201C301A9244F
:102A4E000E6EA513480CF4A78E77F1774C2526034E
:102A5E00A41B4C66EE7FA904ED8FC503A80CD16FA5
:102A6E0065156804903F45044F47620C64044805A1
:102A7E00E50BB08FF3C76614EA55F4E7F0D7AB7FDA
:102A8E00AE5F070C4301410001000100010001008F
:102A9E000100010001000100010001000100010020
:102AAE000100010001000100010001000100010010
:102ABE000100010001000100010001000100010000
:102ACE0001000100010001000100010001000100F0
:102ADE0001000100010041004101AC26F5F7F7CFDE
:102AEE00A71C0503A50364034C2D86039156F3BF63
:102AFE004F4F0D3E2703A503420345042504430310
:102B0E00E6038F36F4B7ED87EC4FE603240B840310
:102B1E004A15A402451BF097A955C50AC3094201DF
:102B2E00410001000100010001000100010001004F
:102B3E00010001000100010001000100010001007F
:102B4E00010001000100010001000100010001006F
:102B5E00010001000100010001000100010001005F
:102B6E00010001000100010001000100010001004F
:102B7E000100010081008201020A821182016502B8
:102B8E00913F906705038502C90BF28F0703C70BB0
:102B9E00114FA502A4030B6F8B2E906F0E470604E8
:102BAE002725420B6203A302CF67A50BA2090102E0
:102BBE008201A2014201C100620021000100010058
:102BCE0001000100010001000100010001000100EF
:102BDE0001000100010001000100010001000100DF
:102BEE0001000100010001000100010001000100CF
:102BFE0001000100010001000100010001000100BF
:102C0E0001000100010001000100010001000100AE
:102C1E0001004100810061006100C20083012302B6
:102C2E00E70AEA2BCF3F103EA302E2020302630241
:102C3E00E502640BC40AC402AF6FF1A7715F6502AF
:102C4E004303230263010201C100A0008100610061
:102C5E00210001000100000001000100010001003F
:102C6E00010001000100010001000100010001004E
:102C7E00010001000100010001000100010001003E
:102C8E00010001000100010001000100010001002E
:102C9E00010001000100010001000100010001001E
:102CAE00010001000100010001000100010001000E
:102CBE000100010001006100C200A301E200C20098
:102CCE00A200020923020402A20145020402A60385
:102CDE008401E3012514690DA3094409AD2D2302D6
:102CEE008000220001080100000001000100010027
:102CFE0001000100010001000100010001000100BE
:102D0E0001000100010001000100010001000100AD
:102D1E00010001000100010001000100010001009D
:102D2E00010001000100010001000100010001008D
:102D3E00010001000100010001000100010001007D
:102D4E00010001000100010001000100010001006D
:102D5E00010001002100210021002100210061005D
:102D6E00A100C3086D1CE2008200A2008100C10018
:102D7E0042016201A20061006100610021000100B8
:102D8E00010001000100010001000100010001002D
:102D9E00010001000100010001000100010001001D
:102DAE00010001000100010001000100010001000D
:102DBE0001000100010001000100010001000100FD
:102DCE0001000100010001000100010001000100ED
:102DDE0001000100010001000100010001000100DD
:102DEE0001000100010001000100010001000100CD
:102DFE00010001000100010001000100010042007C
:102E0E0042002100010001000100210041004100AB
:102E1E00010001000100010001000100010001009C
:102E2E00010001000100010001000100010001008C
:102E3E00010001000100010001000100010001007C
:102E4E00010001000100010001000100010001006C
:10718A00C116C111C117C115C113C112C114C11849
:10719A004200B501F44200B100004200A3000042DF
:1071AA0000A500004200A700004200A9000042001A
:0D71BA00AB00004200AD00004200AF00003D
:0300030002720A7C
:10720A00C0E0C083C082C0D075D01030B336D21867
:10721A009000B6E004F070069000B5E004F0C39068
:10722A0000B6E094E89000B5E0648094834004E4FA
:10723A00F0A3F09000B5E0FFA3E09000B3CFF0A375
:10724A00EFF08026C2189000B6E024FFF09000B557
:10725A00E034FFF0D3A3E094009000B5E06480949A
:10726A008050077403F0A374E8F0D0D0D082D083A2
:03727A00D0E0322F
:03000B000260CAC6
:0D60CA00C0E0C0F0C083C082C0D075D00817
:1060D700AD8BAF8D9000ADE0FAA3E0FBA3EAF0A390
:1060E700EBF0EFFE7C00E42DFFEC3EFE9000ADF000
:1060F700A3EFF0C39BEE9A4019A3E0FEA3E0FF9045
:1061070000AEE09FFF9000ADE09EFE7D641237F683
:1061170080389000AFE0FEA3E0FBE4C39BFBE49E66
:10612700FA74019400F9E49400F89000ADE0FEA33E
:10613700E0FFE4FCFDEB2FFFEA3EFEED39FDEC3816
:10614700FCE47B64FAF9F812396E9000B1EEF0A323
:10615700EFF09000ACE004F070069000ABE004F0C4
:10616700C39000ACE094019000ABE094004006E4DB
:10617700F0A3F0D2149000A4E004F070069000A3FE
:10618700E004F0C39000A4E094649000A3E09400BE
:106197004006E4F0A3F0D2167D017F017E0012696C
:1061A7003C9000D2E07002A3E06002D217301127C2
:1061B7009000A6E004F070069000A5E004F0B2A5F8
:1061C700D39000A6E0940A9000A5E094004008E46C
:1061D700F0A3F0C211C2A59000A8E004F0700690E9
:1061E70000A7E004F09000A8E030E004D21380029A
:1061F700D2129000AAE004F070069000A9E004F023
:10620700C39000AAE094019000A9E094004006E43E
:05621700F0A3F0D21518
:0B621C00D0D0D082D083D0F0D0E03290
:10781700E5A254F34404F5A2E4F5CF75CED075CDB7
:10782700C0D2807F01FE12795DC2807F0A7E00127E
:0B783700795DD2807F787E0002795DD1
:0F7A7B00C2A48FCFE5CD30E7FB75CDC0D2A422DA
:05000600C281027A7BBB
:057AA200120006E4FFE4
:057AA700D281027A7B90
:0579E500E0FEA3E0FF3D
:1079EA00AD07AC06D281ECFF127A7BAF05027A7B37
:10774F00900027EEF0A3EFF0A3ECF0A3EDF07F2A6B
:10775F001200069000271279E5AE02AF031279EA04
:10776F007F2B120006A31279E590002D1279E57F89
:04777F002C020006D2
:0873AB00900003EEF0A3EFF0E7
:1073B30090002D7401F0A3743FF07BEF7A00E4FD9D
:1073C300FCFFFE12774FE4900005F0A3F0E4FBFA14
:1073D3009000031279E50BBB00010ABA01F2BB402E
:1073E300EF900006E004F07006900005E004F0C39F
:0E73F300900006E094F0900005E0940040CF7A
:017401002268
:10763100900009FEE0FCA3E0FDC3900006E09DFD83
:06764100900005E09CFC36
:10764700AB07AA068D828C83C006C007AE83AF82C4
:1076570090002DEEF0A3EFF0D007D00612774F90F1
:0A76670000C9E0FEA3E0FF0279EA8B
:0E56EB0090000BEEF0A3EFF0A3ECF0A3EDF0B7
:1056F900E4900015F0A3F0A3F0A3F090000BE0FEF6
:10570900A3E0FFC3EB9FFFEA9E900019F0A3EFF01F
:1057190090000DE0FAA3E0FBC3900012E09BFE901D
:105729000011E09A90001BF0A3CEF090000BE0FF6F
:10573900A3E0900023CFF0A3EFF0A3EAF0A3EBF0EE
:10574900900019E0FEA3E0FFD39400EE64809480FA
:10575900400A90001FE4F0A304F08021EF4E700886
:1057690090001FF0A3F0801574FF90001FF0A3F0C4
:10577900C3E49FFFE49E900019F0A3EFF090001B93
:10578900E0FEA3E0FFD39400EE64809480400A9089
:105799000021E4F0A304F08021EF4E70089000216D
:1057A900F0A3F0801574FF900021F0A3F0C3E49FEB
:1057B900FFE49E90001BF0A3EFF090001BE0FEA316
:1057C900E0FF900019E0FCA3E0FDD39FEE6480F8B0
:1057D900EC64809890001D4007ECF0A3EDF0800583
:1057E900EEF0A3EFF0E4900013F0A3F090001EE0B8
:1057F9002401FF90001DE03400FED3900014E09FC7
:10580900900013E09E40030258D5900023E0FEA3C8
:10581900E0FFA3E0FCA3E0FD127647900019E0FE4B
:10582900A3E0FF900016E02FF0900015E03EF09005
:10583900001BE0FEA3E0FF900018E02FF090001796
:10584900E03EF090001DE0FEA3E0FF900015E0FCB3
:10585900A3E0FDD39FEE6480F8EC6480984020EDCE
:105869009FFFEC9E900015F0A3EFF090001FE0FE63
:10587900A3E0FF900024E02FF0900023E03EF09099
:10588900001DE0FEA3E0FF900017E0FCA3E0FDD3BC
:105899009FEE6480F8EC6480984020ED9FFFEC9EB9
:1058A900900017F0A3EFF0900021E0FEA3E0FF9035
:1058B9000026E02FF0900025E03EF0900014E0046F
:0C58C900F07006900013E004F00257F5A8
:0158D50022B0
:106E3300900007EAF0A3EBF0900003EEF0A3EFF06D
:106E4300A3ECF0A3EDF0C007A3E0FAA3E0FB9000EE
:106E530005E0FFA3E0900011CFF0A3EFF0D00712FD
:106E630056EB900003E0FAA3E0FBFFAE02C007A3DA
:106E7300E0FCA3E0FD900009E0FFA3E0900011CF48
:106E8300F0A3EFF0D0071256EB900009E0FCA3E06B
:106E9300FD900007E0FAA3E0FBA3E0FFA3E090006E
:106EA30011CFF0A3EFF0900003E0FEA3E0FF125632
:106EB300EB900007E0FAA3E0FBFFAE02C0079000EF
:106EC30005E0FCA3E0FD900009E0FFA3E0900011C2
:0A6ED300CFF0A3EFF0D0070256EB5A
:0E58D600900003EEF0A3EFF0A3ECF0A3EDF0D2
:1058E400E4A3F0A3F0EBFF7E00A3EEF0A3EFF0251A
:1058F400E0FFEE33FEC374039F90000CF0E49E902F
:10590400000BF0900009E0FEA3E0FF900007E0FC2C
:10591400A3E0FDD39FEE6480F8EC6480984003021A
:105924005AAD900004E02DFF900003E03C12763164
:10593400900009E0FEA3E0FF900004E02FFF900038
:1059440003E03E900007127634900009E0FEA3E0E5
:10595400FF900004E02FFF900003E03EFE9000075C
:10596400E0FCA3E0FD900006E02DFD900005E03C86
:10597400FC127647900007E0FEA3E0FF900004E0ED
:105984002FFF900003E03EFE900009E0FCA3E0FD41
:10599400900006E02DFD900005E03CFC1276479057
:1059A4000007E0FEA3E0FFC3900004E09FFF900027
:1059B40003E09EFE900009E0FCA3E0FD900006E0F9
:1059C4002DFD900005E03CFC127647900009E0FEB6
:1059D400A3E0FFC3900004E09FFF900003E09EFE5D
:1059E400900007E0FCA3E0FD900006E02DFD900090
:1059F40005E03CFC127647900007E0FEA3E0FFC3FD
:105A0400900004E09FFF900003E09E127631900026
:105A140009E0FEA3E0FFC3900004E09FFF900003B1
:105A2400E09EFE900007127635900008E004F070C6
:105A340006900007E004F0C390000BE064809480BB
:105A44005025900007E0FEA3E07802C333CE33CEA6
:105A5400D8F92406FFE43EFE90000CE02FF09000FD
:105A64000BE03EF0025907900009E0FEA3E0FFC3FB
:105A7400900008E09FFF900007E09EFEEF7802C3CD
:105A840033CE33CED8F9240AFFE43EFE90000CE076
:105A94002FF090000BE03EF090000AE024FFF0901D
:095AA4000009E034FFF00259078B
:015AAD0022D6
:10708800900003EEF0A3EFF0A3ECF0A3EDF0A3EA79
:04709800F0A3EBF086
:10709C00C007A3E0FFA3E090002DCFF0A3EFF0D04A
:1070AC000712774F900005E0FFA3E090000DCFF0A2
:1070BC00A3EFF0900009E0FEA3E0FFD390000EE0F8
:1070CC009F90000DE09E5034900003E0FEA3E0FB87
:1070DC00AA06C3900008E09B900007E09A400D9030
:1070EC00000B1279E50BBB00010A80E690000EE064
:0C70FC0004F070BF90000DE004F080B7BD
:017108002264
:105C47007FCB1200067F39127AA77F2C127AA7E43E
:105C5700FF127AA77F34127AA77F02127AA77FCF23
:105C6700127AA27FC1127AA77F30127AA77FE81231
:105C770000067F85127AA7E4FF127AA77F78127A47
:105C8700A77FEA127AA2127AA77FED1200067F6435
:105C9700127AA77F03127AA77F12127AA77F81123F
:105CA7007AA77FF71200067F20127AA77FC012001B
:105CB700067F23127AA77FC11200067F10127AA7E8
:105CC7007FC51200067F3E127AA77F28127AA77F28
:105CD700C71200067F86127AA77F361200067F4812
:105CE700127AA77F3A1200067F55127AA77FB11260
:105CF7007AA27F18127AA77FB61200067F08127A57
:105D0700A77F82127AA77F27127AA77FF2127AA239
:105D17007F261200067F01127AA77FE01200067F16
:105D27000F127AA77F31127AA77F2B127AA77F0CDF
:105D3700127AA77F0E127AA77F08127AA77F4E12D0
:105D47007AA77FF1127AA77F37127AA77F07127A8D
:105D5700A77F10127AA77F03127AA77F0E127AA75E
:105D67007F09127AA7E4FF127AA77FE1127AA27F4E
:105D77000E127AA77F14127AA77F03127AA77F11D0
:105D8700127AA77F07127AA77F31127AA77FC112EB
:105D97007AA77F48127AA77F08127AA77F0F127A0D
:105DA700A77F0C127AA77F31127AA77F36127AA7BC
:105DB7007F0F127AA77F111200067F787E00127973
:0B5DC7005D7F291200067F2C02000601
:107A4A007F281200067F147E0012795D7F100200E3
:017A5A000625
:1079B9007F111200067F787E0012795D7F291200FF
:0679C900067F2C020006FF
:065AAE00FBE4900014F07F
:105AB40090000FEEF0A3EFF0A3ECF0A3EDF0A3EB56
:015AC400F0F1
:105AC50090000FE0FEA3E0FF900017EEF0A3EFF0CB
:105AD5009000C9E0FDA3E0900019CDF0A3EDF0D34F
:105AE500EF94E0EE94004003025C46900011E0FC68
:105AF500A3E0FD9430EC94014003025C4690001352
:105B0500E024E0F090000FE0FAA3E0FFAE02C0064B
:105B1500C0072407FBE43AFAA3E0FEA3E0240FFF45
:105B2500E43E90002DF0A3EFF0D007D00612774F9A
:105B3500900014E06003025BCEF9900013E075F06D
:105B450010A4FFE97C002FFFEC35F0FE74732FF5F0
:105B550082743B3EF583E493900015F0E4A3F09046
:105B65000015E030E00590001980039000CBE0FFC0
:105B7500A3E09000C9CFF0A3EFF09000C91279E53A
:105B8500900015E0C313F0900010E004F07006904B
:105B9500000FE004F0900016E004F0E0C394084024
:105BA500BE900017E0FFA3E090000FCFF0A3EFF049
:105BB500900012E004F07006900011E004F009E98D
:105BC50064106003025B3F8069E4F9900013E0759F
:105BD500F010A4FFE97C002FFFEC35F0FE74732F65
:105BE500F582743B3EF583E493900015F0E4A3F051
:105BF500900016E0FFC394085033900015E030E0A4
:105C05001F900010E02FFF90000FE03400FEE9FD2B
:105C1500900012E02DFD900011E03400FC12764753
:105C2500900015E0C313F0A3E004F080C309E9B4C4
:105C35001099900019E0FFA3E09000C9CFF0A3EF01
:015C4500F06E
:015C4600223B
:08749C0090000FEFF0A3EDF0EA
:1074A400A3123AF000000001900010E0FF14F0EF86
:1074B4006020A3E0F8A3E0F9A3E0FAA3E0FB9000C6
:1074C4000FE0FFE4FCFDFE12396E900011123AE465
:1074D40080D6900011E0FCA3E0FDA3E0FEA3E0FF52
:0174E4002285
:0E6A2500900003EEF0A3EFF0A3ECF0A3EDF071
:106A3300E490000EF0900007A3A3E0FEA3E0FFE4C0
:106A4300FCFD900007123AE4E490000CF090000B78
:106A5300E0FFA3E0FEC39F4003026B05C3EF9E1458
:106A6300FD7F0A12749CA804A905AA06AB0790002F
:106A730007E0FCA3E0FDA3E0FEA3E0FF1239F9E485
:106A83007B0AFAF9F81239F990000DEBF0A3E070E4
:106A93003B90000BE014FFA3E0FEC39F502EA3E046
:106AA3007024EE75F008A4FF900004E02FFF90001F
:106AB30003E035F0FE900005E0FCA3E0FDE4900068
:106AC30014F07B20803090000E7401F090000CE0F5
:106AD30075F008A4FF900004E02FFF900003E03559
:106AE300F0FE900005E0FCA3E0FD90000DE02430F3
:106AF300FBE4900014F0125AB490000CE004F0028E
:026B03006A50D6
:016B0500226D
:10700600900003EEF0A3EFF0A3ECF0A3EDF0A3EAFB
:04701600F0A3EBF008
:10701A00E490000AF0900009E0F9A3E0FFC3995058
:10702A005CC3E99F14FD7F0A12749CA804A905AAEF
:10703A0006AB07900007E0FEA3E0FFE4FCFD12396F
:10704A00F9E47B0AFAF9F81239F9AF0390000BEF69
:10705A00F090000AE075F008A4FF900004E02FFF0A
:10706A00900003E035F0FE900005E0FCA3E0FDEBA4
:0D707A002430125AAE90000AE004F0809815
:0170870022E6
:1062270090000BEEF0A3EFF090000FEBF0A3EAF075
:0B623700A3E9F090000DECF0A3EDF0E7
:1062420090000BE0FAA3E0FFAE02C006C007240FE5
:10625200FBE43AFAA3E0FEA3E0240FFFE43E900041
:106262002DF0A3EFF0D007D00612774FE49000187C
:10627200F0A3F0900018E0FEA3E0FFC39440EE9478
:1062820000400302636990000FE0FBA3E0FAA3E081
:10629200F912379EFD904A2075F023EF123B21EE52
:1062A20075F023A42583F583E4936D60030263589C
:1062B2009000011237B7FF900018E0FCA3E0904A6B
:1062C2002175F023123B21EC75F023A42583F5837D
:0A62D200E4936F6003026358FBFAC7
:1062DC00900018E0FEA3E0904A2375F023123B21B6
:1062EC00EE75F023A42583F583E5822BF582E583F7
:1062FC003AF583E493FF90001AE4F0A3EFF0E490F6
:10630C000016F0A3F090001BE030E705900012801F
:10631C00039000141279E590001BE025E0F090004A
:10632C001AE033F0900017E004F07006900016E0CD
:10633C0004F0C3900017E09408900016E09400401D
:01634C00C48C
:10634D000BBB00010AEB64204A7084900019E00435
:0C635D00F07006900018E004F002627579
:016369002211
:1064AD00900003EEF0A3EFF0A3ECF0A3EDF0A3EB5F
:0764BD00F0A3EAF0A3E9F0EF
:1064C400E4A3F0900007E0FBA3E0FAA3E0F912379D
:1064D4009E70030265E3C394805069900004E094C5
:1064E400E0900003E094004012E4F0A3F090000672
:1064F400E02410F0900005E03400F0D3900006E0B2
:106504009430900005E09401400BE4900003F0A364
:10651400F0A3F0A3F0900003E0FEA3E0FFA3E0FCEF
:10652400A3E0FD12379E125AAE900004E02408F056
:10653400900003E03400F0900008E475F001123894
:10654400930264C7D3900004E094D0900003E094D5
:10655400004012E4F0A3F0900006E02420F0900044
:1065640005E03400F0D3900006E09420900005E0AC
:106574009401400BE4900003F0A3F0A3F0A3F09087
:10658400000AE075F008A4FF900004E02FFF9000DB
:1065940003E035F0FEC007900005E0FCA3E0FDA396
:1065A400E0FBA3E0FAA3E0F99000C9E0FFA3E090C8
:1065B4000012CFF0A3EFF09000CBE0FFA3E0900037
:1065C40014CFF0A3EFF0D007126227900008E4750F
:0F65D400F00212389390000AE02402F00264C72C
:0165E3002295
:10636A0090000BEEF0A3EFF090000FEBF0A3EAF031
:0B637A00A3E9F090000DECF0A3EDF0A3
:1063850090000BE0FAA3E0FFAE02C006C007241F91
:10639500FBE43AFAA3E0FEA3E0241FFFE43E9000ED
:1063A5002DF0A3EFF0D007D00612774FE490001838
:1063B500F0A3F0900018E0FEA3E0FFC3940FEE9465
:1063C5000040030264AC90000FE0FBA3E0FAA3E0F9
:1063D500F912379EFD90683675F083EF123B21EE7A
:1063E50075F083A42583F583E4936D600302649BB4
:1063F5009000011237B7FF900018E0FCA3E0906809
:106405003775F083123B21EC75F083A42583F58362
:0A641500E4936F600302649BFBFA3E
:10641F00900018E0FEA3E090683975F083123B21DD
:10642F00EE75F083A42583F583E5822BF582E58352
:10643F003AF583E493FF90001AE4F0A3EFF0E490B1
:10644F000016F0A3F090001BE030E70590001280DB
:10645F00039000141279E590001BE025E0F0900006
:10646F001AE033F0900017E004F07006900016E089
:10647F0004F0C3900017E09408900016E0940040D9
:01648F00C448
:106490000BBB00010AEB64804A7084900019E00491
:0C64A000F07006900018E004F00263B8F1
:0164AC0022CD
:10710900900003EEF0A3EFF0A3ECF0A3EDF0A3EBF6
:07711900F0A3EAF0A3E9F086
:10712000E4A3F0900007E0FBA3E0FAA3E0F9123734
:107130009E605690000AE075F010A4FF900004E0F5
:107140002FFF900003E035F0FEC007900005E0FC43
:10715000A3E0FD9000C9E0FFA3E0900012CFF0A3F0
:10716000EFF09000CBE0FFA3E0900014CFF0A3EF8E
:10717000F0D00712636A900008E475F002123893A9
:0971800090000AE02402F0809A5C
:0171890022E3
:106B0600900003EBF0A3EAF0A3E9F0A3ECF0FEA3F8
:036B1600EDF0FFA0
:106B1900C006C007A3E0FCA3E0FDA3E0FEA3E0FFDD
:106B2900900006E0FAA3E02FFFEA3ECF24FFFBEF37
:106B390034FFFA90000CE0FEA3E0FF900008E0F8B3
:106B4900A3E02FFFE83ECF24FFCF34FF90002DF0C4
:106B5900A3EFF0D007D00612774FE490000EF0A310
:106B6900F090000CE0FCA3E0FD90000AE0FEA3E039
:106B7900FF1237F690000EE0FCA3E0FDC39FEC9EE8
:106B89005055D281ED25E0FFEC33FE900003E0FB88
:106B9900A3E0FAA3E02FF9EA3EFA9000011237B711
:106BA900FF127A7B90000FE025E0FF90000EE033A2
:106BB900FE900003E0FBA3E0FAA3E0F98F828E8345
:106BC9001237B7FF127A7B90000FE004F0709290B1
:076BD900000EE004F0808AC9
:016BE0002292
:077ABC0025642C25640A007B
:0771C700C1994200D2000053
:10727D00900003EBF0A3EAF0A3E9F0AF0590000353
:10728D00E0FBA3E0FAA3E0F9EC8FF01239229000B5
:10729D0008E0FEA3E0FF900003E0FBA3E0FAA3E00B
:1072AD00F9900002EE8FF0123941900003E0FBA33C
:1072BD00E0FAA3E0F91238BFFF90000DE5F0F0A35E
:1072CD00EFF09000021238EAFF90000FE5F0F0A306
:0B72DD00EFF07BFF7A7A79BC0241CE13
:0B7A9700D2A0C2A55395DF4396202229
:0E734A00900003EEF0A3EFF0A3ECF0A3EDF043
:10735800E4A3F0A3F0900003E0FAA3E0FBA3E0FEAF
:10736800A3E0FFAD03AC021237F67C017DF41238BE
:1073780008C3900008E09F900007E09E5022B2A545
:10738800E4F9F87F207EA17D07FC1274E5127A0EDD
:10739800900008E004F070BD900007E004F080B5AC
:0273A800C2A57C
:0173AA0022C0
:05693C00900000EDF0E9
:1069410030951E30961B30971830B31530C6123073
:10695100B20F30B50C30C20930B40630C70302693A
:10696100FB9000D1E004F0EF2401FFE43EFEE0C320
:106971009FE49E5003026A24E4F0C219209506A305
:10698100F0A304F02220960A9000D2E4F0A374024E
:10699100F02220970A9000D2E4F0A37403F02220A1
:1069A100B30A9000D2E4F0A37404F02220C60A9046
:1069B10000D2E4F0A37405F02220B20A9000D2E4E0
:1069C100F0A37406F02220B50A9000D2E4F0A3747B
:1069D10007F02220C20A9000D2E4F0A37408F0224A
:1069E10020B40A9000D2E4F0A37409F02220C72C4D
:1069F1009000D2E4F0A3740AF02230951F30961C67
:106A010030971930B31630C61330B21030B50D308F
:106A1100C20A30B40730C704D2198000E49000D212
:036A2100F0A3F0EF
:016A2400224F
:106BE10025640A0048656C6C6F2C776F726C6421A8
:106BF100006162636465666768696A6B6C6D6E6F7C
:106C0100707172737475767778797A2100C4BDCB0F
:106C1100BE00CEAAD2BBCFDFCEA2C3A3E3BFE3BDEA
:106C2100D2BBD2E2B9C2D0D0A3AC00D5E2D6DAC988
:106C3100FADCBFDCBFCBADB2BBD4F8C8E7B4CBC87C
:106C4100CED0D4A3A100C7E0B4BA00616463303AE6
:106C5100202020202000616463313A202020202060
:106C610000616463323A2020202020006164633394
:106C71003A2020202020006C695F766F6C74616778
:106C8100653A20202020202056002E004E52463208
:106C9100344C30315F53746174653A2054785F4DE0
:106CA1006F646500646972656374696F6EA3BA008D
:086CB1007370656564A3BA006D
:1071CE004400650000000042004F000044005100E2
:0D71DE000000004200550000420057000074
:1077E7009000B1E0FAA3E0FB9000097406F07D7009
:1077F7007C00E4FFFE1270067BFF7A6B79E1900054
:10780700B5E0FFA3E090000DCFF0A3EFF00241CE6B
:1051AA001265E4E4FFFE7DA07C4190008FE0F8A345
:1051BA00E0F9A3E0FAA3E0FB12336C402EE4FFFE11
:1051CA007DB47C4290008FE0F8A3E0F9A3E0FAA353
:1051DA00E0FB12336C600250127B017A007959901D
:1051EA000008E4F0A304F07D078046E4FFFE7DB4E6
:1051FA007CC290008FE0F8A3E0F9A3E0FAA3E0FBF9
:10520A0012336C4030E4FFFE7DA07CC190008FE039
:10521A00F8A3E0F9A3E0FAA3E0FB12336C600250B2
:10522A00147B017A007987900008E4F0A304F07DEA
:10523A00067C00803890005BE07004A3E064017093
:10524A00117B017A007959900008F0A3F07D07FCE0
:10525A00801B900089E07004A3E0640170127B0156
:10526A007A007987900008F0A3F07D06FC12727D1F
:10527A00E4FFFE7DA07C41900093E0F8A3E0F9A34F
:10528A00E0FAA3E0FB12336C402EE4FFFE7DB47C0F
:10529A0042900093E0F8A3E0F9A3E0FAA3E0FB123E
:1052AA00336C600250127B017A00797B900008E42B
:1052BA00F0A304F07D038046E4FFFE7DB47CC29037
:1052CA000093E0F8A3E0F9A3E0FAA3E0FB12336C41
:1052DA004030E4FFFE7DA07CC1900093E0F8A3E09B
:1052EA00F9A3E0FAA3E0FB12336C600250147B01CD
:1052FA007A007983900008E4F0A304F07D027C0030
:10530A00803890007DE07004A3E0640170117B0195
:10531A007A00797B900008F0A3F07D03FC801B9053
:10532A000085E07004A3E0640170127B017A0079C1
:10533A0083900008F0A3F07D02FC12727D90005069
:10534A00E004F0700690004FE004F0C3900050E0D3
:10535A0094F090004FE09400404BE4F0A3F09000EA
:10536A000904F0A3743EF0E4A3F0A3F07BEFFA7D06
:10537A008CFCFFFE1270889000C974F8F0A3E4F068
:10538A009000CBF0A3F0900011F0A374E5F07BEF4E
:10539A007A00FD7C00E4FFFE1256EB9000C9740708
:1053AA00F0A374E0F090009BE0FCA3E0FDA3E0FE14
:1053BA00A3E0FF123428D3EF94A6EE6480947F50C2
:1053CA0003025474EF945AEE6480948040030254AA
:1053DA007490009BE0FCA3E0FDA3E0FEA3E0FF12B3
:1053EA003428C374E59FFDE49EFC90004FE0FEA3C1
:1053FA00E0FF127647E4FFFEFDFC90009BE0F8A375
:10540A00E0F9A3E0FAA3E0FB12336C9000C7401363
:10541A00742BF090009BE0FCA3E0FDA3E0FEA3E068
:10542A00FF801B742DF0E4FFFE7D807CBF90009B03
:10543A00E0F8A3E0F9A3E0FAA3E0FB1231C61234C4
:10544A00289000C8EFF07B017A0079C51276AC7F0C
:10545A0007127A8A8F20300507AD207F27127A5BE0
:0A546A00300407AD207F27127A5BA3
:015474002215
:105F5A00126CB99000CDE0FCA3E0FDA3E0FEA3E043
:105F6A00FF123428AB07AA069000097403F07D508B
:105F7A007C007F207E001270069000CBE0FFA3E039
:105F8A009000C9CFF0A3EFF0E4FFFE7D347CC3900C
:105F9A000051E0F8A3E0F9A3E0FAA3E0FB1230D540
:105FAA007B337A33796578421232CF125E1AE4FB78
:105FBA00FA79E078411231C6123428EF2478FBE4EA
:105FCA003EFAC002C003E4FFFE7D347CC390005158
:105FDA00E0F8A3E0F9A3E0FAA3E0FB1230D57B33A3
:105FEA007A33796578421232CF125E30E4FBFA795D
:105FFA00E078411231C6123428EF2464FFE43E905F
:10600A000011F0A3EFF0D003D0027D647C007F780A
:10601A007E001256EB9000C974FFF0A374E0F0E41E
:10602A00FFFE7D347CC39000CDE0F8A3E0F9A3E045
:10603A00FAA3E0FB1230D57B337A337965784212C2
:10604A0032CF125E1AE4FBFA79E078411231C612B5
:10605A003428EF2478FBE43EFAC002C003E4FFFED2
:10606A007D347CC39000CDE0F8A3E0F9A3E0FAA365
:10607A00E0FB1230D57B337A33796578421232CF1E
:10608A00125E30E4FBFA79E078411231C612342804
:10609A00EF2464FFE43E900011F0A3EFF0D003D0A8
:1060AA00027D647C007F787E001256EB9000CDE082
:1060BA00FCA3E0FDA3E0FEA3E0FF900051023AE456
:105475009000C97407F0A374E0F0900056E004F0C2
:105485007006900055E004F0900055E0FEA3E0FFA3
:10549500EE600302554CEF24FE602F14604C14603F
:1054A5006814700302552E2404600302554CE4FF72
:1054B5001279FA7E00900071EEF0FAA3EFF0FB90FE
:1054C50000097403F0E4FDFC801B7F011279FA7E6C
:1054D50000900073EEF0FAA3EFF0FB90000974035F
:1054E500F07D107C007F300255AD7F021279FA7E87
:1054F50000900075EEF0FAA3EFF0FB90000974033D
:10550500F0E4FDFC7FA80255AD7F031279FA7E0019
:10551500900077EEF0FAA3EFF0FB9000097403F02A
:105525007D107C007FA80255AD7F041279FAAC0787
:10553500E41233F47BE37AA5799B783C1231C6906B
:105545000065123AE48064E4900055F0A3F0900001
:1055550065E0FCA3E0FDA3E0FEA3E0FF123428AB69
:1055650007AA069000097401F07D207C007F607E0B
:1055750000127006E4FFFE7DC87C42900065E0F8ED
:10558500A3E0F9A3E0FAA3E0FB1231C61234287CAC
:10559500007D6412385DAA04AB059000097402F021
:1055A5007D207C007F707E00127006900058E0041C
:1055B500F07006900057E004F0900058E020E003FA
:1055C500025659900073E0FEA3E0FFC3EE9400403D
:1055D5001BD3EF9450EE940050127B017A00797F33
:1055E500900008E4F0A304F0FD0256AB900073E0D0
:1055F500FEA3E0FFC394AAEE9400401CD3EF94FFF2
:10560500EE940050137B017A007969900008E4F06C
:10561500A304F07D040256AB900081E07004A3E082
:10562500640170117B017A00797F900008F0A3F086
:105635007D010256C990006BE07004A3E06401602F
:10564500030256EA7B017A007969900008F0A3F01D
:105655007D048070900071E0FEA3E0FFC3EE94002E
:10566500401BD3EF9450EE940050127B017A0079E1
:1056750061900008E4F0A304F07D03802990007197
:10568500E0FEA3E0FFC394AAEE9400401DD3EF947F
:10569500FFEE940050147B017A00795D900008E4D8
:1056A500F0A304F07D027C008038900063E0700474
:1056B500A3E0640170117B017A007961900008F024
:1056C500A3F07D03FC801B90005FE07004A3E06401
:1056D5000170127B017A00795D900008F0A3F07DDE
:0556E50002FC12727DC1
:0156EA00229D
:1045E6007F0A7E0012795D7F0A7E00127A0EC2A7CC
:1045F600C2A6127817125C47127A4A7F647E0012AE
:10460600795D1279B97F007EF81273AB7F207EFD4B
:104616001273AB7FE07EFF1273AB7FE07E071273EF
:10462600AB7FFF7E071273AB7F1F7E001273AB7FDB
:104636001F7EF81273AB74FFFFFE1273ABE4FFFE2E
:104646001273AB9000C97407F0A374E0F0E4900015
:10465600CBF0A3F07BFF7A6B79E5FDFCFFFE1264DD
:10466600AD9000C9E4F0A3741FF0900011E4F0A32C
:10467600740FF07BF07A00E4FDFC7F64FE1256EBCB
:104686009000097405F074FFFBFA7D107C00E4FFCE
:10469600FE127006900007123AF03ADE68B19000FA
:1046A6000B7409F07D107C007F647E00126A2590F1
:1046B60000C974FFF0A374E0F0900001E4F0A37465
:1046C60020F0900001E0FCA3E0FDC39440EC9401CF
:1046D600501C7BFF7A6B79F2E4FFFE1264AD90000A
:1046E60002E02410F0900001E03400F080D4D2A65D
:1046F6007FF47E0112795DC2A67FF47E0112795D98
:10470600E4FFFE1273AB7BFF7A00790E900008E49B
:10471600F0A37478F0A3E4F0A3744EF0A3E4F0A33E
:104726007450F0FD7C00126B067FD07E0712795D17
:10473600E4FFFE1273AB9000C974F8F0A3E4F090A6
:104746000009F0A3743CF07BEF7A00E4FDFCFFFE69
:10475600126E339000C974F8F0A3741FF07BFF7AD1
:104766006C790E7D027C007F507E001264AD7BFF6B
:104776007A6C79137D167C007F107E001264AD7B07
:10478600FF7A6C792C7D2A7C007F087E001264AD4E
:104796009000C97407F0A374FFF0FB7A6C79477D2B
:1047A600A07C007F507E001271099000C97407F04A
:1047B600A374E0F07B307DB07C007F707E001258E1
:1047C600D67FF47E0112795D1277B6C2A6900001FB
:1047D600E4F0A374FFF0900001E0FEA3E0FFD394A1
:1047E60000EE9400501B8FEB8FFB7F147E00127936
:1047F6005D900002E024FFF0900001E034FFF080BD
:10480600D5D2A6E4900001F0A3F0900001E0FEA34B
:10481600E0FFC394FFEE9400501B8FEB8FFB7F14D9
:104826007E0012795D900002E004F070DD900001D8
:10483600E004F080D57FE87E0312795DE4FFFE1286
:1048460073AB127A977DE87C037FF47E0112734A7C
:10485600127A6C9000C97407F0A374E0F0E490003B
:10486600CBF0A3F07BFF7A6C794CFDFCFFFE126463
:10487600AD7BFF7A6C79577D107C00E4FFFE1264F5
:10488600AD7BFF7A6C7962E4FDFC7F78FE1264AD45
:104896007BFF7A6C796D7D107C007F787E001264D8
:1048A600AD7BFF7A6C79787D207C00E4FFFE126494
:1048B600AD7BFF7A6C798B7D207C007F687E001251
:1048C60064AD127ACA1274027BFF7A6C798D7D30E0
:1048D6007C00E4FFFE1264AD1278DD7F647E001278
:1048E600795D9000C974F8F0A3E4F090001104F02B
:1048F600A3743FF07BEF7A00FD7C01E4FFFE1256C5
:10490600EB900011E4F0A3748BF07BEF7A00FD7C52
:1049160000E4FFFE1256EB900011E4F0A374E5F0FC
:104926007BEF7A00FD7C00E4FFFE1256EB127AC3A1
:104936007F647E0012795D9000C97407F0A374E06D
:10494600F07B1F7D647C007F787E001258D67BFF4B
:104956007A6C79A57D407C00E4FFFE1264AD7BFF96
:104966007A6C79B17D607C00E4FFFE1264AD7F64F1
:104976007E001278427F007EC27D017C001272E8C2
:10498600D299E4F599127AAC301604C216B2A03068
:104996001505C215125475C3900076E09450900028
:1049A60075E094004017301414C214900077A3E009
:1049B60024F625E0F5ECF5FC1277E780CBD39000E2
:1049C60076E09446900075E0940050BC301305C222
:1049D600131251AA301205C212125F5A3017A920BB
:1049E600191B7B017A00796D9000D2E0FCA3E0FDF3
:1049F600900008E4F0A304F012727D808BC2177B4E
:104A0600017A00796D90006DE0FCA3E0FDE4900072
:0A4A160008F0A3F012727D02498E31
:107923000000000000000000000000000000000054
:107933003F80000000000000000000003F800000C6
:10797400D286D2857F057E00127A0EC2867F057E6E
:0779840000127A0EC28522F9
:107A2200C286D2857F057E00127A0ED2867F057EBF
:047A320000027A0EC6
:10798B00EF24FF9286D2857F057E00127A0EC28588
:07799B007F057E00027A0E59
:1076E300C2857F057E00127A0ED2867F057E001248
:1076F3007A0ED2857F057E00127A0E30860CC28503
:107703007F057E00127A0E7F0022C2857F057E00F0
:06771300127A0E7F012234
:0575AF00900007EFF061
:1075B400E4A3F0C2857F057E00127A0E900007E0F6
:1075C400FF30E704D2868002C286EF25E0900007F0
:1075D400F0D2857F057E00127A0E900008E004F058
:0B75E400E0C3940840CDC2851276E39E
:0175EF002279
:10752900E4900008F0D286900007F0900008E0256A
:10753900E0F0D2857F057E00127A0E900008E0FF08
:10754900A286E433FEEF4EF0C2857F057E00127AF3
:107559000E900007E004F0E0C3940840CE900008C4
:02756900E0FF41
:01756B0022FD
:1078BA00900003EFF0A3EDF01279747FD01275AF48
:1078CA00900003E0FF1275AF900004E0FF1275AF5D
:0378DA00027A220D
:05778300900005EFF08D
:107788001279747FD01275AF900005E0FF1275AFC3
:107798001279747FD11275AF127529900006EFF037
:0D77A8007F0112798B127A22900006E0FF1B
:0177B50022B1
:1078DD00E4FD7F6B1278BA7D077F191278BA7D06A9
:1078ED007F1A1278BA7D187F1B1278BA7D017F1C22
:0378FD000278BA54
:05789400900003EFF07D
:10789900127783900004EFF0900003E004FF127761
:1078A90083AD07900004E0FE7C00E42DFFEC3EFE72
:0178B90022AC
:064E3A00900003123AE4AF
:104E4000782F7C007D017BFF7A7979237E007F10AB
:104E5000123778783F7C007D017BFF7A7979337E49
:104E6000007F1012377890009BE0F8A3E0F9A3E0F0
:104E7000FAA3E0FBC000C001C002C00390000BE039
:104E8000F8A3E0F9A3E0FAA3E0FB900007E0FCA39D
:104E9000E0FDA3E0FEA3E0FF1230D17B0A7AD779D0
:104EA00023783C1231C6D003D002D001D00012309A
:104EB000D590009B123AE4900043E0F8A3E0F9A3F8
:104EC000E0FAA3E0FB7F6F7E127D837C3A1230D143
:104ED000900047E0F8A3E0F9A3E0FAA3E0FB12306A
:104EE000D190002F123AE490004BE0FCA3E0FDA328
:104EF000E0FEA3E0FF1233D9900033123AE49000B1
:104F00004BE0FCA3E0FDA3E0FEA3E0FF1233D99049
:104F10000037123AE490003B123AF03B449BA690D3
:104F2000003FE0F8A3E0F9A3E0FAA3E0FBC000C073
:104F300001C002C0037F0A7ED77D237C3C90002FF6
:104F4000E0F8A3E0F9A3E0FAA3E0FB1231C6D00336
:104F5000D002D001D0001230D590003F123AE49038
:104F60000043E0F8A3E0F9A3E0FAA3E0FBC000C02F
:104F700001C002C0037F0A7ED77D237C3C900033B2
:104F8000E0F8A3E0F9A3E0FAA3E0FB1231C6D003F6
:104F9000D002D001D0001230D5900043123AE490F4
:104FA0000047E0F8A3E0F9A3E0FAA3E0FBC000C0EB
:104FB00001C002C0037F0A7ED77D237C3C9000376E
:104FC000E0F8A3E0F9A3E0FAA3E0FB1231C6D003B6
:104FD000D002D001D0001230D5900047123AE490B0
:104FE000004BE0F8A3E0F9A3E0FAA3E0FBC000C0A7
:104FF00001C002C0037F0A7ED77D237C3C90003B2A
:10500000E0F8A3E0F9A3E0FAA3E0FB1231C6D00375
:10501000D002D001D0001230D590004B123AE4906B
:10502000009BE0F8A3E0F9A3E0FAA3E0FB90000303
:10503000E0FCA3E0FDA3E0FEA3E0FF1230D190006E
:105040000F123AE490003FE0FCA3E0FDA3E0FEA3D2
:10505000E0FF900013123AE4900047E0FCA3E0FD6B
:10506000A3E0FEA3E0FF900017123AE4E4FFFEFD88
:105070007C3F900013E0F8A3E0F9A3E0FAA3E0FB83
:105080001230D590001B123AE490001BE0F8A3E028
:10509000F9A3E0FAA3E0FB900013E0FCA3E0FDA37A
:1050A000E0FEA3E0FF1232CF90001F123AE490001E
:1050B0001BE0F8A3E0F9A3E0FAA3E0FB900017E0FF
:1050C000FCA3E0FDA3E0FEA3E0FF1232CF9000239B
:1050D000123AE4900013E0FCA3E0FDA3E0FEA3E09D
:1050E000FF900027123AE4900043E0FCA3E0FDA308
:1050F000E0FEA3E0FF90002B123AE490009BE0F862
:10510000A3E0F9A3E0FAA3E0FBC000C001C002C025
:105110000390000FE0FCA3E0FDA3E0FEA3E0FF90FE
:10512000001FE0F8A3E0F9A3E0FAA3E0FB1231C608
:10513000D003D002D001D0001230D590009B123A9B
:10514000E490000BE0F8A3E0F9A3E0FAA3E0FBC0D1
:1051500000C001C002C003A3E0FCA3E0FDA3E0FE89
:10516000A3E0FF900023E0F8A3E0F9A3E0FAA3E0B6
:10517000FB1231C6D003D002D001D0001230D5903E
:10518000000B123AE490000BE0F8A3E0F9A3E0FA78
:10519000A3E0FB900007E0FCA3E0FDA3E0FEA3E09A
:0A51A000FF1230D190009F023AE4A4
:1065E4007F3B127894AC06AD07EC1233EFE4FBFA70
:1065F400798F78431232CF90008F123AE47F3F12A2
:106604007894AC06AD07EC1233EFE4FBFA798F789B
:10661400431232CF900093123AE4900093E0FCA32B
:10662400E0FDA3E0FEA3E0FFA804A905AA06FB126F
:1066340031C6C004C005C006C00790008FE0FCA3AB
:10664400E0FDA3E0FEA3E0FFA804A905AA06FB124F
:1066540031C6D003D002D001D0001230D5126D8BD8
:10666400900097123AE47F3D127894AC06AD07ECA3
:106674001233EFE4FBFA798F78431232CF90009310
:10668400123AE4900097E0F8A3E0F9A3E0FAA3E05B
:10669400FB90008FE0FCA3E0FDA3E0FEA3E0FF126B
:1066A40032CF1276717B337A33796578421231C6F0
:1066B40090008B123AE47F45127894AC06AD07EC57
:1066C4001233EF90009F123AE490009FE0FCA3E0A5
:1066D400FDA3E0FEA3E0FF1233D97B337A33798341
:1066E40078411232CF90009F123AE490009FE0FC70
:1066F400A3E0FDA3E0FEA3E0FF900007123AE490BC
:10670400008BE0FCA3E0FDA3E0FEA3E0FF024E3A11
:10784200538E7FE4FCFD7B147A01F9F812396EC382
:10785200E49FFFE49E7589408F8AF58C758B0175D4
:0A7862008D01D28CD28ED2A9D2AFD4
:01786C0022F9
:1072E800900003123AE4E5A2543FF5A27598509035
:1072F8000003E0F8A3E0F9A3E0FAA3E0FB7F007E37
:10730800907D7E7C001239F9EFF404F5D7900003E4
:10731800E0F8A3E0F9A3E0FAA3E0FB7F007E907D0C
:107328007E7C001239F9C3E49FFFE49EFE74019D40
:10733800FDE49CFC7808123A998FD6438E14438E4C
:02734800012220
:104A2000C4BD0004407FFC04401FF010101FF010B4
:104A3000101FF00400FFFE12102208CB2612902A4D
:104A4000900400CBBE0000003FF8000800087FE89B
:104A5000000800081F8810881088108810881F8898
:104A6000108800280010CEAA0001002100110011BA
:104A70000001007FF8020802080288044804480880
:104A8000081008200840508020D2BB000000000021
:104A900000000000000000000000FFFE0000000019
:104AA000000000000000000000000000CFDF001048
:104AB0005010482040245C45E0F840105E23E04060
:104AC00044FC48403000221C52E08A43060002CEDB
:104AD000A200110815482548455097DE10242014DF
:104AE0006FD4A0142794249424A824C824942814B0
:104AF0003022C3A30008200820FFFE082008202041
:104B000040102087FE490009001100E1002100212A
:104B10000021FC0000E3BF00102011FC10881050A1
:104B20001BFE540051FC512491FC112411FC102057
:104B300011FC102013FE1000E3BD00100013F8124A
:104B4000081BF8560853F8504097FE100013F8124F
:104B50000813F810401248144410C0D2E2000100BB
:104B60003FF808200440FFFE00001FF010101FF067
:104B700010101FF002005104511290120FF0B9C230
:104B8000000008F83C0BD01290229022902A90321C
:104B9000902290E288228822C822A424D4A4924899
:104BA00000D0D000080009FC1000200048000800D8
:104BB00013FE3020502090201020102010201020B4
:104BC00010A01040D5E20000802040104017FC00EB
:104BD000100210F12010A0104010A01110120814A3
:104BE00008280047FE0000D6DA000100010002801C
:104BF0000440082010102828C82608200820082073
:104C000014501250228841048202C9FA0001001196
:104C100000110011003FFC21004100810001003F14
:104C2000F80100010001000100FFFE0000DCBF00F0
:104C300008200820FFFE0820082000003FF80000A0
:104C40000000FFFE02000400082010103FF81008CA
:104C5000CBAD0001404120212023FE02200620EBA5
:104C6000FC2220222023FC222022202A2033FE2284
:104C7000000200B2BB0000007FFC00800080010049
:104C8000010003400520091011082104410481009E
:104C9000010001000100D4F800082004403FF82181
:104CA00008292825483FF800001FF0101010101F99
:104CB000F0101010101FF01010C8E70010001000C6
:104CC0001000107CFE4422442244224442442444E6
:104CD000144408441444227C42448000B4CB0004B1
:104CE00040044004402444244827502460244024A5
:104CF000402440244024422F42F042403E0000C85D
:104D0000CE00081008780BC01040104030403040F2
:104D10005FFE90401040104010401040104017FCC3
:104D20001000D0D400102010201120112019FC55A3
:104D30002052205020902011FC1020102010201014
:104D40002013FE1000EFAE00100011FC3D242124C2
:104D500041FCBD24112411FCFC20102011FC10206A
:104D60001420182013FE0000B5E700010001000127
:104D7000003FF82108210821083FF82108210821D7
:104D8000083FF8210A0102010200FEB3D8000040EA
:104D9000204012401258826842C853481E481248A8
:104DA0002248E25822422202220221FE0000D1B90A
:104DB0000000003FFE200020802080208020802FE7
:104DC000FC2080208020902088208840805FFE800A
:104DD00000A3BA0000000000000000000000000076
:104DE0000000000000003000300000003000300003
:104DF00000000000A3AC0000000000000000000064
:104E00000000000000000000000000000030003042
:104E100000100020000000A3A100000010001000FE
:104E20001000100010001000100010001000000012
:0A4E30000000100010000000000058
:103B73000000000000000000000000000000000042
:103B830000000008080808080808000018180000CA
:103B930000486C2412000000000000000000000038
:103BA3000000002424247F1212127F12121200003C
:103BB3000000081C2A2A0A0C1828282A2A1C08088C
:103BC30000000022251515152A58545454220000CC
:103BD3000000000C1212120A76252911916E0000C2
:103BE30000060604030000000000000000000000BF
:103BF3000040201010080808080808101020400092
:103C03000002040808101010101010080804020025
:103C13000000000008086B1C1C6B08080000000073
:103C230000000000080808087F08080808000000D2
:103C3300000000000000000000000000060604036E
:103C43000000000000000000FE0000000000000073
:103C53000000000000000000000000000606000055
:103C630000008040402020101008080404020200D5
:103C730000000018244242424242424224180000FB
:103C8300000000080E08080808080808083E00009D
:103C93000000003C4242422020100804427E000003
:103CA3000000003C4242201820404042221C0000F9
:103CB300000000203028242422227E2020780000C7
:103CC3000000007E0202021A26404042221C00002D
:103CD300000000382402021A26424242241800003F
:103CE3000000007E222210100808080808080000BF
:103CF3000000003C4242422418244242423C00005D
:103D0300000000182442424264584040241C000032
:103D13000000000000001818000000001818000040
:103D23000000000000000008000000000008080474
:103D33000000004020100804020408102040000086
:103D43000000000000007F0000007F000000000072
:103D530000000002040810204020100804020000A4
:103D63000000003C4242464020101000181800009A
:103D73000000001C225A555555552D42221C0000A7
:103D83000000000808181414243C224242E70000F3
:103D93000000001F2222221E22424242221F000054
:103DA3000000007C4242010101010142221C00008B
:103DB3000000001F2242424242424242221F0000B0
:103DC3000000003F4212121E12120242423F000044
:103DD3000000003F4212121E1212020202070000EC
